{
  "contractName": "UserPortal",
  "abi": [
    {
      "inputs": [
        {
          "internalType": "address",
          "name": "_adminPortalAddress",
          "type": "address"
        }
      ],
      "stateMutability": "nonpayable",
      "type": "constructor"
    },
    {
      "anonymous": false,
      "inputs": [
        {
          "indexed": true,
          "internalType": "address",
          "name": "user",
          "type": "address"
        },
        {
          "indexed": false,
          "internalType": "string",
          "name": "name",
          "type": "string"
        },
        {
          "indexed": false,
          "internalType": "string",
          "name": "email",
          "type": "string"
        }
      ],
      "name": "ProfileUpdated",
      "type": "event"
    },
    {
      "anonymous": false,
      "inputs": [
        {
          "indexed": true,
          "internalType": "string",
          "name": "purchaseId",
          "type": "string"
        },
        {
          "indexed": true,
          "internalType": "address",
          "name": "buyer",
          "type": "address"
        },
        {
          "indexed": false,
          "internalType": "string",
          "name": "seedId",
          "type": "string"
        },
        {
          "indexed": false,
          "internalType": "uint256",
          "name": "quantity",
          "type": "uint256"
        },
        {
          "indexed": false,
          "internalType": "uint256",
          "name": "totalPrice",
          "type": "uint256"
        }
      ],
      "name": "PurchaseCreated",
      "type": "event"
    },
    {
      "anonymous": false,
      "inputs": [
        {
          "indexed": true,
          "internalType": "string",
          "name": "purchaseId",
          "type": "string"
        },
        {
          "indexed": false,
          "internalType": "enum UserPortal.OrderStatus",
          "name": "newStatus",
          "type": "uint8"
        }
      ],
      "name": "PurchaseStatusUpdated",
      "type": "event"
    },
    {
      "anonymous": false,
      "inputs": [
        {
          "indexed": true,
          "internalType": "string",
          "name": "purchaseId",
          "type": "string"
        },
        {
          "indexed": false,
          "internalType": "string",
          "name": "trackingNumber",
          "type": "string"
        }
      ],
      "name": "TrackingUpdated",
      "type": "event"
    },
    {
      "anonymous": false,
      "inputs": [
        {
          "indexed": true,
          "internalType": "address",
          "name": "user",
          "type": "address"
        },
        {
          "indexed": false,
          "internalType": "string",
          "name": "name",
          "type": "string"
        },
        {
          "indexed": false,
          "internalType": "string",
          "name": "email",
          "type": "string"
        }
      ],
      "name": "UserRegistered",
      "type": "event"
    },
    {
      "inputs": [],
      "name": "adminPortal",
      "outputs": [
        {
          "internalType": "contract AdminPortal",
          "name": "",
          "type": "address"
        }
      ],
      "stateMutability": "view",
      "type": "function"
    },
    {
      "inputs": [
        {
          "internalType": "uint256",
          "name": "",
          "type": "uint256"
        }
      ],
      "name": "allPurchaseIds",
      "outputs": [
        {
          "internalType": "string",
          "name": "",
          "type": "string"
        }
      ],
      "stateMutability": "view",
      "type": "function"
    },
    {
      "inputs": [],
      "name": "owner",
      "outputs": [
        {
          "internalType": "address",
          "name": "",
          "type": "address"
        }
      ],
      "stateMutability": "view",
      "type": "function"
    },
    {
      "inputs": [
        {
          "internalType": "string",
          "name": "",
          "type": "string"
        }
      ],
      "name": "purchases",
      "outputs": [
        {
          "internalType": "string",
          "name": "purchaseId",
          "type": "string"
        },
        {
          "internalType": "string",
          "name": "seedId",
          "type": "string"
        },
        {
          "internalType": "address",
          "name": "buyer",
          "type": "address"
        },
        {
          "internalType": "uint256",
          "name": "quantity",
          "type": "uint256"
        },
        {
          "internalType": "uint256",
          "name": "unitPrice",
          "type": "uint256"
        },
        {
          "internalType": "uint256",
          "name": "totalPrice",
          "type": "uint256"
        },
        {
          "internalType": "enum UserPortal.OrderStatus",
          "name": "status",
          "type": "uint8"
        },
        {
          "internalType": "uint256",
          "name": "timestamp",
          "type": "uint256"
        },
        {
          "internalType": "string",
          "name": "trackingNumber",
          "type": "string"
        }
      ],
      "stateMutability": "view",
      "type": "function"
    },
    {
      "inputs": [
        {
          "internalType": "uint256",
          "name": "",
          "type": "uint256"
        }
      ],
      "name": "registeredUsers",
      "outputs": [
        {
          "internalType": "address",
          "name": "",
          "type": "address"
        }
      ],
      "stateMutability": "view",
      "type": "function"
    },
    {
      "inputs": [
        {
          "internalType": "address",
          "name": "",
          "type": "address"
        }
      ],
      "name": "userProfiles",
      "outputs": [
        {
          "internalType": "string",
          "name": "name",
          "type": "string"
        },
        {
          "internalType": "string",
          "name": "email",
          "type": "string"
        },
        {
          "internalType": "string",
          "name": "userAddress",
          "type": "string"
        },
        {
          "internalType": "string",
          "name": "phone",
          "type": "string"
        },
        {
          "internalType": "bool",
          "name": "isActive",
          "type": "bool"
        },
        {
          "internalType": "uint256",
          "name": "registrationDate",
          "type": "uint256"
        }
      ],
      "stateMutability": "view",
      "type": "function"
    },
    {
      "inputs": [
        {
          "internalType": "address",
          "name": "",
          "type": "address"
        },
        {
          "internalType": "uint256",
          "name": "",
          "type": "uint256"
        }
      ],
      "name": "userPurchases",
      "outputs": [
        {
          "internalType": "string",
          "name": "",
          "type": "string"
        }
      ],
      "stateMutability": "view",
      "type": "function"
    },
    {
      "inputs": [
        {
          "internalType": "string",
          "name": "_name",
          "type": "string"
        },
        {
          "internalType": "string",
          "name": "_email",
          "type": "string"
        },
        {
          "internalType": "string",
          "name": "_userAddress",
          "type": "string"
        },
        {
          "internalType": "string",
          "name": "_phone",
          "type": "string"
        }
      ],
      "name": "registerUser",
      "outputs": [],
      "stateMutability": "nonpayable",
      "type": "function"
    },
    {
      "inputs": [
        {
          "internalType": "string",
          "name": "_name",
          "type": "string"
        },
        {
          "internalType": "string",
          "name": "_email",
          "type": "string"
        },
        {
          "internalType": "string",
          "name": "_userAddress",
          "type": "string"
        },
        {
          "internalType": "string",
          "name": "_phone",
          "type": "string"
        }
      ],
      "name": "updateProfile",
      "outputs": [],
      "stateMutability": "nonpayable",
      "type": "function"
    },
    {
      "inputs": [
        {
          "internalType": "address",
          "name": "_user",
          "type": "address"
        }
      ],
      "name": "deactivateUser",
      "outputs": [],
      "stateMutability": "nonpayable",
      "type": "function"
    },
    {
      "inputs": [
        {
          "internalType": "string",
          "name": "_purchaseId",
          "type": "string"
        },
        {
          "internalType": "string",
          "name": "_seedId",
          "type": "string"
        },
        {
          "internalType": "uint256",
          "name": "_quantity",
          "type": "uint256"
        }
      ],
      "name": "createPurchase",
      "outputs": [],
      "stateMutability": "nonpayable",
      "type": "function"
    },
    {
      "inputs": [
        {
          "internalType": "string",
          "name": "_purchaseId",
          "type": "string"
        },
        {
          "internalType": "enum UserPortal.OrderStatus",
          "name": "_newStatus",
          "type": "uint8"
        }
      ],
      "name": "updatePurchaseStatus",
      "outputs": [],
      "stateMutability": "nonpayable",
      "type": "function"
    },
    {
      "inputs": [
        {
          "internalType": "string",
          "name": "_purchaseId",
          "type": "string"
        },
        {
          "internalType": "string",
          "name": "_trackingNumber",
          "type": "string"
        }
      ],
      "name": "updateTrackingNumber",
      "outputs": [],
      "stateMutability": "nonpayable",
      "type": "function"
    },
    {
      "inputs": [
        {
          "internalType": "string",
          "name": "_purchaseId",
          "type": "string"
        }
      ],
      "name": "cancelPurchase",
      "outputs": [],
      "stateMutability": "nonpayable",
      "type": "function"
    },
    {
      "inputs": [
        {
          "internalType": "address",
          "name": "_user",
          "type": "address"
        }
      ],
      "name": "getUserPurchases",
      "outputs": [
        {
          "internalType": "string[]",
          "name": "",
          "type": "string[]"
        }
      ],
      "stateMutability": "view",
      "type": "function"
    },
    {
      "inputs": [
        {
          "internalType": "string",
          "name": "_purchaseId",
          "type": "string"
        }
      ],
      "name": "getPurchaseDetails",
      "outputs": [
        {
          "components": [
            {
              "internalType": "string",
              "name": "purchaseId",
              "type": "string"
            },
            {
              "internalType": "string",
              "name": "seedId",
              "type": "string"
            },
            {
              "internalType": "address",
              "name": "buyer",
              "type": "address"
            },
            {
              "internalType": "uint256",
              "name": "quantity",
              "type": "uint256"
            },
            {
              "internalType": "uint256",
              "name": "unitPrice",
              "type": "uint256"
            },
            {
              "internalType": "uint256",
              "name": "totalPrice",
              "type": "uint256"
            },
            {
              "internalType": "enum UserPortal.OrderStatus",
              "name": "status",
              "type": "uint8"
            },
            {
              "internalType": "uint256",
              "name": "timestamp",
              "type": "uint256"
            },
            {
              "internalType": "string",
              "name": "trackingNumber",
              "type": "string"
            }
          ],
          "internalType": "struct UserPortal.Purchase",
          "name": "",
          "type": "tuple"
        }
      ],
      "stateMutability": "view",
      "type": "function"
    },
    {
      "inputs": [
        {
          "internalType": "address",
          "name": "_user",
          "type": "address"
        }
      ],
      "name": "getUserProfile",
      "outputs": [
        {
          "components": [
            {
              "internalType": "string",
              "name": "name",
              "type": "string"
            },
            {
              "internalType": "string",
              "name": "email",
              "type": "string"
            },
            {
              "internalType": "string",
              "name": "userAddress",
              "type": "string"
            },
            {
              "internalType": "string",
              "name": "phone",
              "type": "string"
            },
            {
              "internalType": "bool",
              "name": "isActive",
              "type": "bool"
            },
            {
              "internalType": "uint256",
              "name": "registrationDate",
              "type": "uint256"
            }
          ],
          "internalType": "struct UserPortal.UserProfile",
          "name": "",
          "type": "tuple"
        }
      ],
      "stateMutability": "view",
      "type": "function"
    },
    {
      "inputs": [
        {
          "internalType": "address",
          "name": "_user",
          "type": "address"
        }
      ],
      "name": "getPurchaseHistory",
      "outputs": [
        {
          "components": [
            {
              "internalType": "string",
              "name": "purchaseId",
              "type": "string"
            },
            {
              "internalType": "string",
              "name": "seedId",
              "type": "string"
            },
            {
              "internalType": "address",
              "name": "buyer",
              "type": "address"
            },
            {
              "internalType": "uint256",
              "name": "quantity",
              "type": "uint256"
            },
            {
              "internalType": "uint256",
              "name": "unitPrice",
              "type": "uint256"
            },
            {
              "internalType": "uint256",
              "name": "totalPrice",
              "type": "uint256"
            },
            {
              "internalType": "enum UserPortal.OrderStatus",
              "name": "status",
              "type": "uint8"
            },
            {
              "internalType": "uint256",
              "name": "timestamp",
              "type": "uint256"
            },
            {
              "internalType": "string",
              "name": "trackingNumber",
              "type": "string"
            }
          ],
          "internalType": "struct UserPortal.Purchase[]",
          "name": "",
          "type": "tuple[]"
        }
      ],
      "stateMutability": "view",
      "type": "function"
    },
    {
      "inputs": [
        {
          "internalType": "address",
          "name": "_user",
          "type": "address"
        }
      ],
      "name": "getTotalPurchases",
      "outputs": [
        {
          "internalType": "uint256",
          "name": "",
          "type": "uint256"
        }
      ],
      "stateMutability": "view",
      "type": "function"
    },
    {
      "inputs": [
        {
          "internalType": "address",
          "name": "_user",
          "type": "address"
        }
      ],
      "name": "getTotalSpent",
      "outputs": [
        {
          "internalType": "uint256",
          "name": "",
          "type": "uint256"
        }
      ],
      "stateMutability": "view",
      "type": "function"
    },
    {
      "inputs": [
        {
          "internalType": "address",
          "name": "_user",
          "type": "address"
        }
      ],
      "name": "getPurchaseStats",
      "outputs": [
        {
          "internalType": "uint256",
          "name": "totalPurchases",
          "type": "uint256"
        },
        {
          "internalType": "uint256",
          "name": "totalSpent",
          "type": "uint256"
        },
        {
          "internalType": "uint256",
          "name": "deliveredCount",
          "type": "uint256"
        },
        {
          "internalType": "uint256",
          "name": "pendingCount",
          "type": "uint256"
        },
        {
          "internalType": "uint256",
          "name": "cancelledCount",
          "type": "uint256"
        }
      ],
      "stateMutability": "view",
      "type": "function"
    },
    {
      "inputs": [],
      "name": "getAllRegisteredUsers",
      "outputs": [
        {
          "internalType": "address[]",
          "name": "",
          "type": "address[]"
        }
      ],
      "stateMutability": "view",
      "type": "function"
    },
    {
      "inputs": [],
      "name": "getRegisteredUsersCount",
      "outputs": [
        {
          "internalType": "uint256",
          "name": "",
          "type": "uint256"
        }
      ],
      "stateMutability": "view",
      "type": "function"
    }
  ],
  "bytecode": "0x60806040523480156200001157600080fd5b506040516200348338038062003483833981016040819052620000349162000068565b60068054336001600160a01b031991821617909155600580549091166001600160a01b039290921691909117905562000098565b6000602082840312156200007a578081fd5b81516001600160a01b038116811462000091578182fd5b9392505050565b6133db80620000a86000396000f3fe608060405234801561001057600080fd5b506004361061014d5760003560e01c80637259e0f8116100c3578063999572f71161007c578063999572f71461031d578063b86b89a014610325578063c215600d14610338578063c6e5d8f61461034b578063cf2c03341461036b578063d40297621461037e5761014d565b80637259e0f81461028b5780638da5cb5b146102ab57806393e54a56146102b35780639483f25c146102c6578063987ee156146102d957806398cf4518146102f95761014d565b8063314ba61911610115578063314ba619146101d6578063332d56d7146101f657806334eb3ee21461021b578063397388af1461022e5780636c143e20146102435780636f9a98fb146102635761014d565b806302c81f8214610152578063173d50471461017b5780631a47767b146101905780631c6135dc146101a357806321034444146101b6575b600080fd5b6101656101603660046129ac565b610386565b6040516101729190613296565b60405180910390f35b61018e610189366004612a84565b610785565b005b61018e61019e3660046129ac565b61088c565b61018e6101b1366004612a31565b610915565b6101c96101c43660046129ac565b610a20565b6040516101729190612dea565b6101e96101e43660046129f6565b610e48565b60405161017291906131eb565b6102096102043660046129ac565b61110f565b60405161017296959493929190612f16565b61018e6102293660046129f6565b611367565b6102366114e4565b6040516101729190612d3d565b610256610251366004612bf7565b611546565b6040516101729190612e51565b6102766102713660046129f6565b6115f2565b60405161017299989796959493929190612e92565b61029e610299366004612bf7565b6117f1565b6040516101729190612d29565b61029e61181b565b61018e6102c1366004612ae5565b61182a565b61018e6102d4366004612ae5565b6119ec565b6102ec6102e73660046129ac565b611b29565b60405161017291906131fe565b61030c6103073660046129ac565b611dbb565b60405161017295949392919061329f565b6101656122d8565b61018e610333366004612b8d565b6122de565b6101656103463660046129ac565b61267e565b61035e6103593660046129ac565b612699565b6040516101729190612d8a565b6102566103793660046129cd565b612788565b61029e6127c0565b6001600160a01b038116600090815260026020908152604080832080548251818502810185019093528083528493849084015b828210156104655783829060005260206000200180546103d890613329565b80601f016020809104026020016040519081016040528092919081815260200182805461040490613329565b80156104515780601f1061042657610100808354040283529160200191610451565b820191906000526020600020905b81548152906001019060200180831161043457829003601f168201915b5050505050815260200190600101906103b9565b5050505090506000805b825181101561077b576000600184838151811061049c57634e487b7160e01b600052603260045260246000fd5b60200260200101516040516104b19190612d0d565b9081526020016040518091039020604051806101200160405290816000820180546104db90613329565b80601f016020809104026020016040519081016040528092919081815260200182805461050790613329565b80156105545780601f1061052957610100808354040283529160200191610554565b820191906000526020600020905b81548152906001019060200180831161053757829003601f168201915b5050505050815260200160018201805461056d90613329565b80601f016020809104026020016040519081016040528092919081815260200182805461059990613329565b80156105e65780601f106105bb576101008083540402835291602001916105e6565b820191906000526020600020905b8154815290600101906020018083116105c957829003601f168201915b505050918352505060028201546001600160a01b0316602082015260038201546040820152600480830154606083015260058301546080830152600683015460a09092019160ff169081111561064c57634e487b7160e01b600052602160045260246000fd5b600481111561066b57634e487b7160e01b600052602160045260246000fd5b81526020016007820154815260200160088201805461068990613329565b80601f01602080910402602001604051908101604052809291908181526020018280546106b590613329565b80156107025780601f106106d757610100808354040283529160200191610702565b820191906000526020600020905b8154815290600101906020018083116106e557829003601f168201915b505050505081525050905060048081111561072d57634e487b7160e01b600052602160045260246000fd5b8160c00151600481111561075157634e487b7160e01b600052602160045260246000fd5b146107685760a081015161076590846132c2565b92505b50806107738161335e565b91505061046f565b509150505b919050565b6006546001600160a01b031633146107b85760405162461bcd60e51b81526004016107af9061312c565b60405180910390fd5b8160006001826040516107cb9190612d0d565b90815260405190819003602001902080546107e590613329565b9050116108045760405162461bcd60e51b81526004016107af90613100565b816001846040516108159190612d0d565b908152602001604051809103902060080190805190602001906108399291906127cf565b50826040516108489190612d0d565b60405180910390207f9aeccf300bb49aa7a438d7b8da9e2df0c379ba63c04c1cf9ed06e7a31191d1818360405161087f9190612e51565b60405180910390a2505050565b6006546001600160a01b031633146108b65760405162461bcd60e51b81526004016107af9061312c565b6001600160a01b03811660009081526020819052604090206004015460ff166108f15760405162461bcd60e51b81526004016107af90613003565b6001600160a01b03166000908152602081905260409020600401805460ff19169055565b6006546001600160a01b0316331461093f5760405162461bcd60e51b81526004016107af9061312c565b8160006001826040516109529190612d0d565b908152604051908190036020019020805461096c90613329565b90501161098b5760405162461bcd60e51b81526004016107af90613100565b8160018460405161099c9190612d0d565b908152604051908190036020019020600601805460ff191660018360048111156109d657634e487b7160e01b600052602160045260246000fd5b0217905550826040516109e99190612d0d565b60405180910390207f1371eb1001e524acd35a494495ab8f31511cf7f241bc96fc1ab69e6dd960fbc98360405161087f9190612e3d565b6001600160a01b0381166000908152600260209081526040808320805482518185028101850190935280835260609493849084015b82821015610b01578382906000526020600020018054610a7490613329565b80601f0160208091040260200160405190810160405280929190818152602001828054610aa090613329565b8015610aed5780601f10610ac257610100808354040283529160200191610aed565b820191906000526020600020905b815481529060010190602001808311610ad057829003601f168201915b505050505081526020019060010190610a55565b5050505090506000815167ffffffffffffffff811115610b3157634e487b7160e01b600052604160045260246000fd5b604051908082528060200260200182016040528015610b6a57816020015b610b57612853565b815260200190600190039081610b4f5790505b50905060005b825181101561077b576001838281518110610b9b57634e487b7160e01b600052603260045260246000fd5b6020026020010151604051610bb09190612d0d565b908152602001604051809103902060405180610120016040529081600082018054610bda90613329565b80601f0160208091040260200160405190810160405280929190818152602001828054610c0690613329565b8015610c535780601f10610c2857610100808354040283529160200191610c53565b820191906000526020600020905b815481529060010190602001808311610c3657829003601f168201915b50505050508152602001600182018054610c6c90613329565b80601f0160208091040260200160405190810160405280929190818152602001828054610c9890613329565b8015610ce55780601f10610cba57610100808354040283529160200191610ce5565b820191906000526020600020905b815481529060010190602001808311610cc857829003601f168201915b505050918352505060028201546001600160a01b0316602082015260038201546040820152600480830154606083015260058301546080830152600683015460a09092019160ff1690811115610d4b57634e487b7160e01b600052602160045260246000fd5b6004811115610d6a57634e487b7160e01b600052602160045260246000fd5b815260200160078201548152602001600882018054610d8890613329565b80601f0160208091040260200160405190810160405280929190818152602001828054610db490613329565b8015610e015780601f10610dd657610100808354040283529160200191610e01565b820191906000526020600020905b815481529060010190602001808311610de457829003601f168201915b505050505081525050828281518110610e2a57634e487b7160e01b600052603260045260246000fd5b60200260200101819052508080610e409061335e565b915050610b70565b610e50612853565b816000600182604051610e639190612d0d565b9081526040519081900360200190208054610e7d90613329565b905011610e9c5760405162461bcd60e51b81526004016107af90613100565b600183604051610eac9190612d0d565b908152602001604051809103902060405180610120016040529081600082018054610ed690613329565b80601f0160208091040260200160405190810160405280929190818152602001828054610f0290613329565b8015610f4f5780601f10610f2457610100808354040283529160200191610f4f565b820191906000526020600020905b815481529060010190602001808311610f3257829003601f168201915b50505050508152602001600182018054610f6890613329565b80601f0160208091040260200160405190810160405280929190818152602001828054610f9490613329565b8015610fe15780601f10610fb657610100808354040283529160200191610fe1565b820191906000526020600020905b815481529060010190602001808311610fc457829003601f168201915b505050918352505060028201546001600160a01b0316602082015260038201546040820152600480830154606083015260058301546080830152600683015460a09092019160ff169081111561104757634e487b7160e01b600052602160045260246000fd5b600481111561106657634e487b7160e01b600052602160045260246000fd5b81526020016007820154815260200160088201805461108490613329565b80601f01602080910402602001604051908101604052809291908181526020018280546110b090613329565b80156110fd5780601f106110d2576101008083540402835291602001916110fd565b820191906000526020600020905b8154815290600101906020018083116110e057829003601f168201915b50505050508152505091505b50919050565b60006020819052908152604090208054819061112a90613329565b80601f016020809104026020016040519081016040528092919081815260200182805461115690613329565b80156111a35780601f10611178576101008083540402835291602001916111a3565b820191906000526020600020905b81548152906001019060200180831161118657829003601f168201915b5050505050908060010180546111b890613329565b80601f01602080910402602001604051908101604052809291908181526020018280546111e490613329565b80156112315780601f1061120657610100808354040283529160200191611231565b820191906000526020600020905b81548152906001019060200180831161121457829003601f168201915b50505050509080600201805461124690613329565b80601f016020809104026020016040519081016040528092919081815260200182805461127290613329565b80156112bf5780601f10611294576101008083540402835291602001916112bf565b820191906000526020600020905b8154815290600101906020018083116112a257829003601f168201915b5050505050908060030180546112d490613329565b80601f016020809104026020016040519081016040528092919081815260200182805461130090613329565b801561134d5780601f106113225761010080835404028352916020019161134d565b820191906000526020600020905b81548152906001019060200180831161133057829003601f168201915b505050506004830154600590930154919260ff1691905086565b80600060018260405161137a9190612d0d565b908152604051908190036020019020805461139490613329565b9050116113b35760405162461bcd60e51b81526004016107af90613100565b60006001836040516113c59190612d0d565b90815260405190819003602001902060028101549091506001600160a01b03163314806113fc57506006546001600160a01b031633145b6114185760405162461bcd60e51b81526004016107af9061316e565b6000600682015460ff16600481111561144157634e487b7160e01b600052602160045260246000fd5b148061147357506001600682015460ff16600481111561147157634e487b7160e01b600052602160045260246000fd5b145b61148f5760405162461bcd60e51b81526004016107af90612fcc565b60068101805460ff191660041790556040516114ac908490612d0d565b60405180910390207f1371eb1001e524acd35a494495ab8f31511cf7f241bc96fc1ab69e6dd960fbc9600460405161087f9190612e3d565b6060600480548060200260200160405190810160405280929190818152602001828054801561153c57602002820191906000526020600020905b81546001600160a01b0316815260019091019060200180831161151e575b5050505050905090565b6003818154811061155657600080fd5b90600052602060002001600091509050805461157190613329565b80601f016020809104026020016040519081016040528092919081815260200182805461159d90613329565b80156115ea5780601f106115bf576101008083540402835291602001916115ea565b820191906000526020600020905b8154815290600101906020018083116115cd57829003601f168201915b505050505081565b805160208183018101805160018252928201919093012091528054819061161890613329565b80601f016020809104026020016040519081016040528092919081815260200182805461164490613329565b80156116915780601f1061166657610100808354040283529160200191611691565b820191906000526020600020905b81548152906001019060200180831161167457829003601f168201915b5050505050908060010180546116a690613329565b80601f01602080910402602001604051908101604052809291908181526020018280546116d290613329565b801561171f5780601f106116f45761010080835404028352916020019161171f565b820191906000526020600020905b81548152906001019060200180831161170257829003601f168201915b5050505060028301546003840154600485015460058601546006870154600788015460088901805498996001600160a01b03909716989597509395929460ff9092169390929161176e90613329565b80601f016020809104026020016040519081016040528092919081815260200182805461179a90613329565b80156117e75780601f106117bc576101008083540402835291602001916117e7565b820191906000526020600020905b8154815290600101906020018083116117ca57829003601f168201915b5050505050905089565b6004818154811061180157600080fd5b6000918252602090912001546001600160a01b0316905081565b6006546001600160a01b031681565b3360009081526020819052604090206004015460ff161561185d5760405162461bcd60e51b81526004016107af90613063565b600084511161187e5760405162461bcd60e51b81526004016107af90612f9e565b600083511161189f5760405162461bcd60e51b81526004016107af906130d1565b6040805160c081018252858152602080820186905281830185905260608201849052600160808301524260a08301523360009081528082529290922081518051929391926118f092849201906127cf565b50602082810151805161190992600185019201906127cf565b50604082015180516119259160028401916020909101906127cf565b50606082015180516119419160038401916020909101906127cf565b5060808201516004828101805460ff19169215159290921790915560a09092015160059091015580546001810182556000919091527f8a35acfbc15ff81a39ae7d344fd709f28e8600b4aa8c65c6b64bfe7fe36bd19b018054336001600160a01b031990911681179091556040517f92822564bab8864c3a47b34e8d23fbce5c46234eb5da261f94087b995ac0f33b906119de9087908790612e64565b60405180910390a250505050565b3360009081526020819052604090206004015460ff16611a1e5760405162461bcd60e51b81526004016107af9061302c565b6000845111611a3f5760405162461bcd60e51b81526004016107af90612f9e565b6000835111611a605760405162461bcd60e51b81526004016107af906130d1565b336000908152602081815260409091208551611a7e928701906127cf565b50336000908152602081815260409091208451611aa3926001909201918601906127cf565b50336000908152602081815260409091208351611ac8926002909201918501906127cf565b50336000908152602081815260409091208251611aed926003909201918401906127cf565b50336001600160a01b03167f6eb3a1c6a4675ba92d44e090515b1ceea358f26565d2854df0c99c3f5eaf985085856040516119de929190612e64565b611b316128c7565b6001600160a01b03821660009081526020819052604090819020815160c08101909252805482908290611b6390613329565b80601f0160208091040260200160405190810160405280929190818152602001828054611b8f90613329565b8015611bdc5780601f10611bb157610100808354040283529160200191611bdc565b820191906000526020600020905b815481529060010190602001808311611bbf57829003601f168201915b50505050508152602001600182018054611bf590613329565b80601f0160208091040260200160405190810160405280929190818152602001828054611c2190613329565b8015611c6e5780601f10611c4357610100808354040283529160200191611c6e565b820191906000526020600020905b815481529060010190602001808311611c5157829003601f168201915b50505050508152602001600282018054611c8790613329565b80601f0160208091040260200160405190810160405280929190818152602001828054611cb390613329565b8015611d005780601f10611cd557610100808354040283529160200191611d00565b820191906000526020600020905b815481529060010190602001808311611ce357829003601f168201915b50505050508152602001600382018054611d1990613329565b80601f0160208091040260200160405190810160405280929190818152602001828054611d4590613329565b8015611d925780601f10611d6757610100808354040283529160200191611d92565b820191906000526020600020905b815481529060010190602001808311611d7557829003601f168201915b5050509183525050600482015460ff161515602082015260059091015460409091015292915050565b6001600160a01b0381166000908152600260209081526040808320805482518185028101850190935280835284938493849384938493849084015b82821015611ea2578382906000526020600020018054611e1590613329565b80601f0160208091040260200160405190810160405280929190818152602001828054611e4190613329565b8015611e8e5780601f10611e6357610100808354040283529160200191611e8e565b820191906000526020600020905b815481529060010190602001808311611e7157829003601f168201915b505050505081526020019060010190611df6565b5050505090508051955060005b81518110156122cd5760006001838381518110611edc57634e487b7160e01b600052603260045260246000fd5b6020026020010151604051611ef19190612d0d565b908152602001604051809103902060405180610120016040529081600082018054611f1b90613329565b80601f0160208091040260200160405190810160405280929190818152602001828054611f4790613329565b8015611f945780601f10611f6957610100808354040283529160200191611f94565b820191906000526020600020905b815481529060010190602001808311611f7757829003601f168201915b50505050508152602001600182018054611fad90613329565b80601f0160208091040260200160405190810160405280929190818152602001828054611fd990613329565b80156120265780601f10611ffb57610100808354040283529160200191612026565b820191906000526020600020905b81548152906001019060200180831161200957829003601f168201915b505050918352505060028201546001600160a01b0316602082015260038201546040820152600480830154606083015260058301546080830152600683015460a09092019160ff169081111561208c57634e487b7160e01b600052602160045260246000fd5b60048111156120ab57634e487b7160e01b600052602160045260246000fd5b8152602001600782015481526020016008820180546120c990613329565b80601f01602080910402602001604051908101604052809291908181526020018280546120f590613329565b80156121425780601f1061211757610100808354040283529160200191612142565b820191906000526020600020905b81548152906001019060200180831161212557829003601f168201915b505050505081525050905060048081111561216d57634e487b7160e01b600052602160045260246000fd5b8160c00151600481111561219157634e487b7160e01b600052602160045260246000fd5b146121a85760a08101516121a590886132c2565b96505b60038160c0015160048111156121ce57634e487b7160e01b600052602160045260246000fd5b14156121e657856121de8161335e565b9650506122ba565b60008160c00151600481111561220c57634e487b7160e01b600052602160045260246000fd5b148061223b575060018160c00151600481111561223957634e487b7160e01b600052602160045260246000fd5b145b80612269575060028160c00151600481111561226757634e487b7160e01b600052602160045260246000fd5b145b1561228057846122788161335e565b9550506122ba565b60048160c0015160048111156122a657634e487b7160e01b600052602160045260246000fd5b14156122ba57836122b68161335e565b9450505b50806122c58161335e565b915050611eaf565b505091939590929450565b60045490565b3360009081526020819052604090206004015460ff166123105760405162461bcd60e51b81526004016107af9061302c565b6001836040516123209190612d0d565b908152604051908190036020019020805461233a90613329565b1590506123595760405162461bcd60e51b81526004016107af906131b4565b60055460405160009182916001600160a01b039091169061237e908690602401612e51565b60408051601f198184030181529181526020820180516001600160e01b0316630bf38cdf60e31b179052516123b39190612d0d565b6000604051808303816000865af19150503d80600081146123f0576040519150601f19603f3d011682016040523d82523d6000602084013e6123f5565b606091505b5091509150816124175760405162461bcd60e51b81526004016107af9061309a565b671bc16d674ec80000600061242c82866132da565b9050604051806101200160405280888152602001878152602001336001600160a01b031681526020018681526020018381526020018281526020016000600481111561248857634e487b7160e01b600052602160045260246000fd5b8152602001428152602001604051806020016040528060008152508152506001886040516124b69190612d0d565b908152602001604051809103902060008201518160000190805190602001906124e09291906127cf565b5060208281015180516124f992600185019201906127cf565b5060408201518160020160006101000a8154816001600160a01b0302191690836001600160a01b03160217905550606082015181600301556080820151816004015560a0820151816005015560c08201518160060160006101000a81548160ff0219169083600481111561257d57634e487b7160e01b600052602160045260246000fd5b021790555060e0820151600782015561010082015180516125a89160088401916020909101906127cf565b505033600090815260026020908152604082208054600181018255908352918190208a516125dd9450920191908a01906127cf565b50600380546001810182556000919091528751612621917fc2575a0e9e593c00f959f8c92f12db2869c3395a3b0502d05e2516446f71f85b019060208a01906127cf565b506040513390612632908990612d0d565b60405180910390207febdcc309495f1d9a242e5ee996f40ff02309966ad2b39a1ac258cd825b6075d488888560405161266d93929190612f79565b60405180910390a350505050505050565b6001600160a01b031660009081526002602052604090205490565b6001600160a01b0381166000908152600260209081526040808320805482518185028101850190935280835260609492939192909184015b8282101561277d5783829060005260206000200180546126f090613329565b80601f016020809104026020016040519081016040528092919081815260200182805461271c90613329565b80156127695780601f1061273e57610100808354040283529160200191612769565b820191906000526020600020905b81548152906001019060200180831161274c57829003601f168201915b5050505050815260200190600101906126d1565b505050509050919050565b600260205281600052604060002081815481106127a457600080fd5b9060005260206000200160009150915050805461157190613329565b6005546001600160a01b031681565b8280546127db90613329565b90600052602060002090601f0160209004810192826127fd5760008555612843565b82601f1061281657805160ff1916838001178555612843565b82800160010185558215612843579182015b82811115612843578251825591602001919060010190612828565b5061284f9291506128ff565b5090565b604051806101200160405280606081526020016060815260200160006001600160a01b03168152602001600081526020016000815260200160008152602001600060048111156128b357634e487b7160e01b600052602160045260246000fd5b815260200160008152602001606081525090565b6040518060c0016040528060608152602001606081526020016060815260200160608152602001600015158152602001600081525090565b5b8082111561284f5760008155600101612900565b80356001600160a01b038116811461078057600080fd5b600082601f83011261293b578081fd5b813567ffffffffffffffff808211156129565761295661338f565b604051601f8301601f19168101602001828111828210171561297a5761297a61338f565b604052828152848301602001861015612991578384fd5b82602086016020830137918201602001929092529392505050565b6000602082840312156129bd578081fd5b6129c682612914565b9392505050565b600080604083850312156129df578081fd5b6129e883612914565b946020939093013593505050565b600060208284031215612a07578081fd5b813567ffffffffffffffff811115612a1d578182fd5b612a298482850161292b565b949350505050565b60008060408385031215612a43578182fd5b823567ffffffffffffffff811115612a59578283fd5b612a658582860161292b565b925050602083013560058110612a79578182fd5b809150509250929050565b60008060408385031215612a96578182fd5b823567ffffffffffffffff80821115612aad578384fd5b612ab98683870161292b565b93506020850135915080821115612ace578283fd5b50612adb8582860161292b565b9150509250929050565b60008060008060808587031215612afa578182fd5b843567ffffffffffffffff80821115612b11578384fd5b612b1d8883890161292b565b95506020870135915080821115612b32578384fd5b612b3e8883890161292b565b94506040870135915080821115612b53578384fd5b612b5f8883890161292b565b93506060870135915080821115612b74578283fd5b50612b818782880161292b565b91505092959194509250565b600080600060608486031215612ba1578283fd5b833567ffffffffffffffff80821115612bb8578485fd5b612bc48783880161292b565b94506020860135915080821115612bd9578384fd5b50612be68682870161292b565b925050604084013590509250925092565b600060208284031215612c08578081fd5b5035919050565b6001600160a01b03169052565b60058110612c3a57634e487b7160e01b600052602160045260246000fd5b9052565b60008151808452612c568160208601602086016132f9565b601f01601f19169290920160200192915050565b60006101208251818552612c8082860182612c3e565b91505060208301518482036020860152612c9a8282612c3e565b9150506040830151612caf6040860182612c0f565b50606083015160608501526080830151608085015260a083015160a085015260c0830151612ce060c0860182612c1c565b5060e083015160e08501526101008084015185830382870152612d038382612c3e565b9695505050505050565b60008251612d1f8184602087016132f9565b9190910192915050565b6001600160a01b0391909116815260200190565b6020808252825182820181905260009190848201906040850190845b81811015612d7e5783516001600160a01b031683529284019291840191600101612d59565b50909695505050505050565b6000602080830181845280855180835260408601915060408482028701019250838701855b82811015612ddd57603f19888603018452612dcb858351612c3e565b94509285019290850190600101612daf565b5092979650505050505050565b6000602080830181845280855180835260408601915060408482028701019250838701855b82811015612ddd57603f19888603018452612e2b858351612c6a565b94509285019290850190600101612e0f565b60208101612e4b8284612c1c565b92915050565b6000602082526129c66020830184612c3e565b600060408252612e776040830185612c3e565b8281036020840152612e898185612c3e565b95945050505050565b6000610120808352612ea68184018d612c3e565b90508281036020840152612eba818c612c3e565b6001600160a01b038b166040850152606084018a90526080840189905260a084018890529050612eed60c0840187612c1c565b8460e0840152828103610100840152612f068185612c3e565b9c9b505050505050505050505050565b600060c08252612f2960c0830189612c3e565b8281036020840152612f3b8189612c3e565b90508281036040840152612f4f8188612c3e565b90508281036060840152612f638187612c3e565b9415156080840152505060a00152949350505050565b600060608252612f8c6060830186612c3e565b60208301949094525060400152919050565b6020808252601490820152734e616d652063616e6e6f7420626520656d70747960601b604082015260600190565b6020808252601b908201527f43616e6e6f742063616e63656c20746869732070757263686173650000000000604082015260600190565b6020808252600f908201526e55736572206e6f742061637469766560881b604082015260600190565b6020808252601f908201527f55736572206e6f742072656769737465726564206f7220696e61637469766500604082015260600190565b60208082526017908201527f5573657220616c72656164792072656769737465726564000000000000000000604082015260600190565b6020808252601c908201527f4661696c656420746f20666574636820736565642064657461696c7300000000604082015260600190565b602080825260159082015274456d61696c2063616e6e6f7420626520656d70747960581b604082015260600190565b602080825260129082015271141d5c98da185cd9481b9bdd08199bdd5b9960721b604082015260600190565b60208082526022908201527f4f6e6c79206f776e65722063616e20706572666f726d2074686973206163746960408201526137b760f11b606082015260800190565b60208082526026908201527f4e6f7420617574686f72697a656420746f2063616e63656c207468697320707560408201526572636861736560d01b606082015260800190565b6020808252601a908201527f507572636861736520494420616c726561647920657869737473000000000000604082015260600190565b6000602082526129c66020830184612c6a565b600060208252825160c0602084015261321a60e0840182612c3e565b90506020840151601f19808584030160408601526132388383612c3e565b925060408601519150808584030160608601526132558383612c3e565b92506060860151915080858403016080860152506132738282612c3e565b9150506080840151151560a084015260a084015160c08401528091505092915050565b90815260200190565b948552602085019390935260408401919091526060830152608082015260a00190565b600082198211156132d5576132d5613379565b500190565b60008160001904831182151516156132f4576132f4613379565b500290565b60005b838110156133145781810151838201526020016132fc565b83811115613323576000848401525b50505050565b60028104600182168061333d57607f821691505b6020821081141561110957634e487b7160e01b600052602260045260246000fd5b600060001982141561337257613372613379565b5060010190565b634e487b7160e01b600052601160045260246000fd5b634e487b7160e01b600052604160045260246000fdfea2646970667358221220a32eb51eec9e3ee442fa39bc060a69186ee9c27e6c29e1315d0abf91aa9bc00264736f6c63430008000033",
  "immutableReferences": {},
  "source": "// SPDX-License-Identifier: MIT\npragma solidity 0.8.0;\n\nimport \"./AdminPortal.sol\";\n\ncontract UserPortal {\n    enum OrderStatus { Pending, Confirmed, Shipped, Delivered, Cancelled }\n    \n    struct Purchase {\n        string purchaseId;\n        string seedId;\n        address buyer;\n        uint256 quantity;\n        uint256 unitPrice;\n        uint256 totalPrice;\n        OrderStatus status;\n        uint256 timestamp;\n        string trackingNumber;\n    }\n    \n    struct UserProfile {\n        string name;\n        string email;\n        string userAddress;\n        string phone;\n        bool isActive;\n        uint256 registrationDate;\n    }\n    \n    mapping(address => UserProfile) public userProfiles;\n    mapping(string => Purchase) public purchases; // purchaseId => Purchase\n    mapping(address => string[]) public userPurchases; // user => purchaseIds[]\n    \n    string[] public allPurchaseIds;\n    address[] public registeredUsers;\n    \n    AdminPortal public adminPortal;\n    address public owner;\n    \n    // EVENTS\n    event UserRegistered(address indexed user, string name, string email);\n    event ProfileUpdated(address indexed user, string name, string email);\n    event PurchaseCreated(string indexed purchaseId, address indexed buyer, string seedId, uint256 quantity, uint256 totalPrice);\n    event PurchaseStatusUpdated(string indexed purchaseId, OrderStatus newStatus);\n    event TrackingUpdated(string indexed purchaseId, string trackingNumber);\n    \n    modifier onlyOwner() {\n        require(msg.sender == owner, \"Only owner can perform this action\");\n        _;\n    }\n    \n    modifier onlyRegisteredUser() {\n        require(userProfiles[msg.sender].isActive, \"User not registered or inactive\");\n        _;\n    }\n    \n    modifier validPurchase(string memory _purchaseId) {\n        require(bytes(purchases[_purchaseId].purchaseId).length > 0, \"Purchase not found\");\n        _;\n    }\n    \n    constructor(address _adminPortalAddress) {\n        owner = msg.sender;\n        adminPortal = AdminPortal(_adminPortalAddress);\n    }\n    \n    // -----------------------------\n    // User Registration & Profile\n    // -----------------------------\n    function registerUser(\n        string memory _name,\n        string memory _email,\n        string memory _userAddress,\n        string memory _phone\n    ) public {\n        require(!userProfiles[msg.sender].isActive, \"User already registered\");\n        require(bytes(_name).length > 0, \"Name cannot be empty\");\n        require(bytes(_email).length > 0, \"Email cannot be empty\");\n        \n        userProfiles[msg.sender] = UserProfile({\n            name: _name,\n            email: _email,\n            userAddress: _userAddress,\n            phone: _phone,\n            isActive: true,\n            registrationDate: block.timestamp\n        });\n        \n        registeredUsers.push(msg.sender);\n        emit UserRegistered(msg.sender, _name, _email);\n    }\n    \n    function updateProfile(\n        string memory _name,\n        string memory _email,\n        string memory _userAddress,\n        string memory _phone\n    ) public onlyRegisteredUser {\n        require(bytes(_name).length > 0, \"Name cannot be empty\");\n        require(bytes(_email).length > 0, \"Email cannot be empty\");\n        \n        userProfiles[msg.sender].name = _name;\n        userProfiles[msg.sender].email = _email;\n        userProfiles[msg.sender].userAddress = _userAddress;\n        userProfiles[msg.sender].phone = _phone;\n        \n        emit ProfileUpdated(msg.sender, _name, _email);\n    }\n    \n    function deactivateUser(address _user) public onlyOwner {\n        require(userProfiles[_user].isActive, \"User not active\");\n        userProfiles[_user].isActive = false;\n    }\n    \n    // -----------------------------\n    // Purchase Management\n    // -----------------------------\n    function createPurchase(\n        string memory _purchaseId,\n        string memory _seedId,\n        uint256 _quantity\n    ) public onlyRegisteredUser {\n        require(bytes(purchases[_purchaseId].purchaseId).length == 0, \"Purchase ID already exists\");\n        \n        // Get seed details from AdminPortal\n        (bool success, bytes memory data) = address(adminPortal).call(\n            abi.encodeWithSignature(\"searchSeed(string)\", _seedId)\n        );\n        \n        require(success, \"Failed to fetch seed details\");\n        \n        // Decode seed data (simplified - in real implementation, you'd need proper ABI)\n        // For now, we'll use a mock price\n        uint256 unitPrice = 2 ether; // Mock price\n        uint256 totalPrice = _quantity * unitPrice;\n        \n        purchases[_purchaseId] = Purchase({\n            purchaseId: _purchaseId,\n            seedId: _seedId,\n            buyer: msg.sender,\n            quantity: _quantity,\n            unitPrice: unitPrice,\n            totalPrice: totalPrice,\n            status: OrderStatus.Pending,\n            timestamp: block.timestamp,\n            trackingNumber: \"\"\n        });\n        \n        userPurchases[msg.sender].push(_purchaseId);\n        allPurchaseIds.push(_purchaseId);\n        \n        emit PurchaseCreated(_purchaseId, msg.sender, _seedId, _quantity, totalPrice);\n    }\n    \n    function updatePurchaseStatus(\n        string memory _purchaseId,\n        OrderStatus _newStatus\n    ) public onlyOwner validPurchase(_purchaseId) {\n        purchases[_purchaseId].status = _newStatus;\n        emit PurchaseStatusUpdated(_purchaseId, _newStatus);\n    }\n    \n    function updateTrackingNumber(\n        string memory _purchaseId,\n        string memory _trackingNumber\n    ) public onlyOwner validPurchase(_purchaseId) {\n        purchases[_purchaseId].trackingNumber = _trackingNumber;\n        emit TrackingUpdated(_purchaseId, _trackingNumber);\n    }\n    \n    function cancelPurchase(string memory _purchaseId) public validPurchase(_purchaseId) {\n        Purchase storage purchase = purchases[_purchaseId];\n        require(purchase.buyer == msg.sender || msg.sender == owner, \"Not authorized to cancel this purchase\");\n        require(purchase.status == OrderStatus.Pending || purchase.status == OrderStatus.Confirmed, \"Cannot cancel this purchase\");\n        \n        purchase.status = OrderStatus.Cancelled;\n        emit PurchaseStatusUpdated(_purchaseId, OrderStatus.Cancelled);\n    }\n    \n    // -----------------------------\n    // View Functions\n    // -----------------------------\n    function getUserPurchases(address _user) public view returns (string[] memory) {\n        return userPurchases[_user];\n    }\n    \n    function getPurchaseDetails(string memory _purchaseId) public view validPurchase(_purchaseId) returns (Purchase memory) {\n        return purchases[_purchaseId];\n    }\n    \n    function getUserProfile(address _user) public view returns (UserProfile memory) {\n        return userProfiles[_user];\n    }\n    \n    function getPurchaseHistory(address _user) public view returns (Purchase[] memory) {\n        string[] memory userPurchaseIds = userPurchases[_user];\n        Purchase[] memory userPurchasesList = new Purchase[](userPurchaseIds.length);\n        \n        for (uint i = 0; i < userPurchaseIds.length; i++) {\n            userPurchasesList[i] = purchases[userPurchaseIds[i]];\n        }\n        \n        return userPurchasesList;\n    }\n    \n    function getTotalPurchases(address _user) public view returns (uint256) {\n        return userPurchases[_user].length;\n    }\n    \n    function getTotalSpent(address _user) public view returns (uint256) {\n        string[] memory userPurchaseIds = userPurchases[_user];\n        uint256 total = 0;\n        \n        for (uint i = 0; i < userPurchaseIds.length; i++) {\n            Purchase memory purchase = purchases[userPurchaseIds[i]];\n            if (purchase.status != OrderStatus.Cancelled) {\n                total += purchase.totalPrice;\n            }\n        }\n        \n        return total;\n    }\n    \n    function getPurchaseStats(address _user) public view returns (\n        uint256 totalPurchases,\n        uint256 totalSpent,\n        uint256 deliveredCount,\n        uint256 pendingCount,\n        uint256 cancelledCount\n    ) {\n        string[] memory userPurchaseIds = userPurchases[_user];\n        totalPurchases = userPurchaseIds.length;\n        \n        for (uint i = 0; i < userPurchaseIds.length; i++) {\n            Purchase memory purchase = purchases[userPurchaseIds[i]];\n            \n            if (purchase.status != OrderStatus.Cancelled) {\n                totalSpent += purchase.totalPrice;\n            }\n            \n            if (purchase.status == OrderStatus.Delivered) {\n                deliveredCount++;\n            } else if (purchase.status == OrderStatus.Pending || purchase.status == OrderStatus.Confirmed || purchase.status == OrderStatus.Shipped) {\n                pendingCount++;\n            } else if (purchase.status == OrderStatus.Cancelled) {\n                cancelledCount++;\n            }\n        }\n    }\n    \n    function getAllRegisteredUsers() public view returns (address[] memory) {\n        return registeredUsers;\n    }\n    \n    function getRegisteredUsersCount() public view returns (uint256) {\n        return registeredUsers.length;\n    }\n}\n",
  "sourcePath": "X:\\projects\\Saathi-Seed-Portal\\src\\contracts\\UserPortal.sol",
  "compiler": {
    "name": "solc",
    "version": "0.8.0+commit.c7dfd78e.Emscripten.clang"
  },
  "schemaVersion": "3.4.16",
  "updatedAt": "2025-10-23T21:35:48.764Z",
  "devdoc": {
    "kind": "dev",
    "methods": {},
    "version": 1
  },
  "userdoc": {
    "kind": "user",
    "methods": {},
    "version": 1
  }
}