{
  "contractName": "AdminPortal",
  "abi": [
    {
      "inputs": [],
      "stateMutability": "nonpayable",
      "type": "constructor"
    },
    {
      "anonymous": false,
      "inputs": [
        {
          "indexed": false,
          "internalType": "string",
          "name": "seedID",
          "type": "string"
        },
        {
          "indexed": false,
          "internalType": "string",
          "name": "cropName",
          "type": "string"
        },
        {
          "indexed": false,
          "internalType": "uint256",
          "name": "quantity",
          "type": "uint256"
        },
        {
          "indexed": false,
          "internalType": "uint256",
          "name": "pricePerUnit",
          "type": "uint256"
        }
      ],
      "name": "SeedAdded",
      "type": "event"
    },
    {
      "anonymous": false,
      "inputs": [
        {
          "indexed": false,
          "internalType": "string",
          "name": "seedID",
          "type": "string"
        },
        {
          "indexed": false,
          "internalType": "address",
          "name": "buyer",
          "type": "address"
        },
        {
          "indexed": false,
          "internalType": "uint256",
          "name": "quantity",
          "type": "uint256"
        },
        {
          "indexed": false,
          "internalType": "uint256",
          "name": "totalPrice",
          "type": "uint256"
        }
      ],
      "name": "SeedSold",
      "type": "event"
    },
    {
      "anonymous": false,
      "inputs": [
        {
          "indexed": false,
          "internalType": "string",
          "name": "seedID",
          "type": "string"
        },
        {
          "indexed": false,
          "internalType": "uint256",
          "name": "quantity",
          "type": "uint256"
        },
        {
          "indexed": false,
          "internalType": "uint256",
          "name": "pricePerUnit",
          "type": "uint256"
        }
      ],
      "name": "SeedUpdated",
      "type": "event"
    },
    {
      "anonymous": false,
      "inputs": [
        {
          "indexed": true,
          "internalType": "address",
          "name": "addedBy",
          "type": "address"
        },
        {
          "indexed": true,
          "internalType": "address",
          "name": "user",
          "type": "address"
        },
        {
          "indexed": false,
          "internalType": "string",
          "name": "name",
          "type": "string"
        },
        {
          "indexed": false,
          "internalType": "enum AdminPortal.Role",
          "name": "role",
          "type": "uint8"
        }
      ],
      "name": "UserAdded",
      "type": "event"
    },
    {
      "inputs": [
        {
          "internalType": "uint256",
          "name": "",
          "type": "uint256"
        }
      ],
      "name": "allSeedIDs",
      "outputs": [
        {
          "internalType": "string",
          "name": "",
          "type": "string"
        }
      ],
      "stateMutability": "view",
      "type": "function"
    },
    {
      "inputs": [
        {
          "internalType": "uint256",
          "name": "",
          "type": "uint256"
        }
      ],
      "name": "sales",
      "outputs": [
        {
          "internalType": "string",
          "name": "seedID",
          "type": "string"
        },
        {
          "internalType": "address",
          "name": "buyer",
          "type": "address"
        },
        {
          "internalType": "uint256",
          "name": "quantity",
          "type": "uint256"
        },
        {
          "internalType": "uint256",
          "name": "totalPrice",
          "type": "uint256"
        },
        {
          "internalType": "uint256",
          "name": "timestamp",
          "type": "uint256"
        }
      ],
      "stateMutability": "view",
      "type": "function"
    },
    {
      "inputs": [
        {
          "internalType": "string",
          "name": "",
          "type": "string"
        }
      ],
      "name": "seeds",
      "outputs": [
        {
          "internalType": "string",
          "name": "seedID",
          "type": "string"
        },
        {
          "internalType": "string",
          "name": "cropName",
          "type": "string"
        },
        {
          "internalType": "string",
          "name": "variety",
          "type": "string"
        },
        {
          "internalType": "string",
          "name": "lotNumber",
          "type": "string"
        },
        {
          "internalType": "string",
          "name": "certificationType",
          "type": "string"
        },
        {
          "internalType": "string",
          "name": "tagNumber",
          "type": "string"
        },
        {
          "internalType": "address",
          "name": "currentOwner",
          "type": "address"
        },
        {
          "internalType": "string",
          "name": "status",
          "type": "string"
        },
        {
          "internalType": "uint256",
          "name": "timestamp",
          "type": "uint256"
        },
        {
          "internalType": "uint256",
          "name": "pricePerUnit",
          "type": "uint256"
        },
        {
          "internalType": "uint256",
          "name": "quantity",
          "type": "uint256"
        }
      ],
      "stateMutability": "view",
      "type": "function"
    },
    {
      "inputs": [],
      "name": "superAdmin",
      "outputs": [
        {
          "internalType": "address",
          "name": "",
          "type": "address"
        }
      ],
      "stateMutability": "view",
      "type": "function"
    },
    {
      "inputs": [
        {
          "internalType": "uint256",
          "name": "",
          "type": "uint256"
        }
      ],
      "name": "userList",
      "outputs": [
        {
          "internalType": "address",
          "name": "",
          "type": "address"
        }
      ],
      "stateMutability": "view",
      "type": "function"
    },
    {
      "inputs": [
        {
          "internalType": "address",
          "name": "",
          "type": "address"
        }
      ],
      "name": "users",
      "outputs": [
        {
          "internalType": "string",
          "name": "name",
          "type": "string"
        },
        {
          "internalType": "enum AdminPortal.Role",
          "name": "role",
          "type": "uint8"
        },
        {
          "internalType": "bool",
          "name": "isActive",
          "type": "bool"
        }
      ],
      "stateMutability": "view",
      "type": "function"
    },
    {
      "inputs": [
        {
          "internalType": "address",
          "name": "_user",
          "type": "address"
        },
        {
          "internalType": "string",
          "name": "_name",
          "type": "string"
        },
        {
          "internalType": "enum AdminPortal.Role",
          "name": "_role",
          "type": "uint8"
        }
      ],
      "name": "addUser",
      "outputs": [],
      "stateMutability": "nonpayable",
      "type": "function"
    },
    {
      "inputs": [
        {
          "internalType": "address",
          "name": "_user",
          "type": "address"
        },
        {
          "internalType": "bool",
          "name": "_isActive",
          "type": "bool"
        }
      ],
      "name": "lockUnlockUser",
      "outputs": [],
      "stateMutability": "nonpayable",
      "type": "function"
    },
    {
      "inputs": [
        {
          "internalType": "string",
          "name": "_seedID",
          "type": "string"
        },
        {
          "internalType": "string",
          "name": "_cropName",
          "type": "string"
        },
        {
          "internalType": "string",
          "name": "_variety",
          "type": "string"
        },
        {
          "internalType": "string",
          "name": "_lotNumber",
          "type": "string"
        },
        {
          "internalType": "string",
          "name": "_certType",
          "type": "string"
        },
        {
          "internalType": "string",
          "name": "_tagNumber",
          "type": "string"
        },
        {
          "internalType": "uint256",
          "name": "_quantity",
          "type": "uint256"
        },
        {
          "internalType": "uint256",
          "name": "_pricePerUnit",
          "type": "uint256"
        }
      ],
      "name": "addSeed",
      "outputs": [],
      "stateMutability": "nonpayable",
      "type": "function"
    },
    {
      "inputs": [
        {
          "internalType": "string",
          "name": "_seedID",
          "type": "string"
        },
        {
          "internalType": "uint256",
          "name": "_quantity",
          "type": "uint256"
        },
        {
          "internalType": "uint256",
          "name": "_pricePerUnit",
          "type": "uint256"
        }
      ],
      "name": "updateSeed",
      "outputs": [],
      "stateMutability": "nonpayable",
      "type": "function"
    },
    {
      "inputs": [
        {
          "internalType": "string",
          "name": "_seedID",
          "type": "string"
        },
        {
          "internalType": "uint256",
          "name": "_quantity",
          "type": "uint256"
        },
        {
          "internalType": "address",
          "name": "_buyer",
          "type": "address"
        }
      ],
      "name": "sellSeed",
      "outputs": [],
      "stateMutability": "nonpayable",
      "type": "function"
    },
    {
      "inputs": [
        {
          "internalType": "string",
          "name": "_seedID",
          "type": "string"
        }
      ],
      "name": "searchSeed",
      "outputs": [
        {
          "components": [
            {
              "internalType": "string",
              "name": "seedID",
              "type": "string"
            },
            {
              "internalType": "string",
              "name": "cropName",
              "type": "string"
            },
            {
              "internalType": "string",
              "name": "variety",
              "type": "string"
            },
            {
              "internalType": "string",
              "name": "lotNumber",
              "type": "string"
            },
            {
              "internalType": "string",
              "name": "certificationType",
              "type": "string"
            },
            {
              "internalType": "string",
              "name": "tagNumber",
              "type": "string"
            },
            {
              "internalType": "address",
              "name": "currentOwner",
              "type": "address"
            },
            {
              "internalType": "string",
              "name": "status",
              "type": "string"
            },
            {
              "internalType": "uint256",
              "name": "timestamp",
              "type": "uint256"
            },
            {
              "internalType": "uint256",
              "name": "pricePerUnit",
              "type": "uint256"
            },
            {
              "internalType": "uint256",
              "name": "quantity",
              "type": "uint256"
            }
          ],
          "internalType": "struct AdminPortal.Seed",
          "name": "",
          "type": "tuple"
        }
      ],
      "stateMutability": "view",
      "type": "function"
    },
    {
      "inputs": [],
      "name": "getDashboardMetrics",
      "outputs": [
        {
          "internalType": "uint256",
          "name": "totalVarieties",
          "type": "uint256"
        },
        {
          "internalType": "uint256",
          "name": "totalQuantity",
          "type": "uint256"
        },
        {
          "internalType": "uint256",
          "name": "totalCost",
          "type": "uint256"
        }
      ],
      "stateMutability": "view",
      "type": "function"
    }
  ],
  "bytecode": "0x60806040523480156200001157600080fd5b50600580546001600160a01b031916331790556040805160a08101909152600b606082019081526a29bab832b91020b236b4b760a91b608083015281526020810160018152600160209182015233600090815280825260409020825180519192620000829284929091019062000125565b50602082015160018083018054909160ff1990911690836004811115620000b957634e487b7160e01b600052602160045260246000fd5b021790555060409190910151600191820180549115156101000261ff0019909216919091179055805480820182556000919091527fb10e2d527612073b26eecdfd717e6a320cf44b4afac2b0732d9fcbe2b7fa0cf60180546001600160a01b0319163317905562000208565b8280546200013390620001cb565b90600052602060002090601f016020900481019282620001575760008555620001a2565b82601f106200017257805160ff1916838001178555620001a2565b82800160010185558215620001a2579182015b82811115620001a257825182559160200191906001019062000185565b50620001b0929150620001b4565b5090565b5b80821115620001b05760008155600101620001b5565b600281046001821680620001e057607f821691505b602082108114156200020257634e487b7160e01b600052602260045260246000fd5b50919050565b61293780620002186000396000f3fe608060405234801561001057600080fd5b50600436106100cf5760003560e01c80639f4216e81161008c578063d16c2d5111610066578063d16c2d51146101dd578063d3100faa146101f0578063d46fc38114610203578063e78a76ab1461021a576100cf565b80639f4216e814610184578063a87430ba14610197578063b5f522f7146101b9576100cf565b80630d6f7e9c146100d457806329575f6a1461010757806340d268541461011c57806350ade8a8146101315780635f9c66f814610144578063748ad3bd14610164575b600080fd5b6100e76100e2366004612063565b61022d565b6040516100fe9b9a9998979695949392919061245f565b60405180910390f35b61010f610651565b6040516100fe919061236c565b61012f61012a366004612000565b610660565b005b61012f61013f3660046121f6565b6108c3565b610157610152366004612063565b610a4b565b6040516100fe91906126cb565b610177610172366004612242565b610f03565b6040516100fe9190612380565b61010f610192366004612242565b610faf565b6101aa6101a5366004611fa5565b610fd9565b6040516100fe9392919061242d565b6101cc6101c7366004612242565b611089565b6040516100fe9594939291906123cb565b61012f6101eb3660046121a1565b611162565b61012f6101fe366004611fc6565b6113ee565b61020b611509565b6040516100fe939291906127df565b61012f61022836600461209e565b611b12565b80516020818301810180516002825292820191909301209152805481906102539061287f565b80601f016020809104026020016040519081016040528092919081815260200182805461027f9061287f565b80156102cc5780601f106102a1576101008083540402835291602001916102cc565b820191906000526020600020905b8154815290600101906020018083116102af57829003601f168201915b5050505050908060010180546102e19061287f565b80601f016020809104026020016040519081016040528092919081815260200182805461030d9061287f565b801561035a5780601f1061032f5761010080835404028352916020019161035a565b820191906000526020600020905b81548152906001019060200180831161033d57829003601f168201915b50505050509080600201805461036f9061287f565b80601f016020809104026020016040519081016040528092919081815260200182805461039b9061287f565b80156103e85780601f106103bd576101008083540402835291602001916103e8565b820191906000526020600020905b8154815290600101906020018083116103cb57829003601f168201915b5050505050908060030180546103fd9061287f565b80601f01602080910402602001604051908101604052809291908181526020018280546104299061287f565b80156104765780601f1061044b57610100808354040283529160200191610476565b820191906000526020600020905b81548152906001019060200180831161045957829003601f168201915b50505050509080600401805461048b9061287f565b80601f01602080910402602001604051908101604052809291908181526020018280546104b79061287f565b80156105045780601f106104d957610100808354040283529160200191610504565b820191906000526020600020905b8154815290600101906020018083116104e757829003601f168201915b5050505050908060050180546105199061287f565b80601f01602080910402602001604051908101604052809291908181526020018280546105459061287f565b80156105925780601f1061056757610100808354040283529160200191610592565b820191906000526020600020905b81548152906001019060200180831161057557829003601f168201915b505050600684015460078501805494956001600160a01b039092169491935091506105bc9061287f565b80601f01602080910402602001604051908101604052809291908181526020018280546105e89061287f565b80156106355780601f1061060a57610100808354040283529160200191610635565b820191906000526020600020905b81548152906001019060200180831161061857829003601f168201915b50505050509080600801549080600901549080600a015490508b565b6005546001600160a01b031681565b6005546001600160a01b03163314806106cf575060013360009081526020819052604090206001015460ff1660048111156106ab57634e487b7160e01b600052602160045260246000fd5b1480156106cf575033600090815260208190526040902060010154610100900460ff165b6106f45760405162461bcd60e51b81526004016106eb9061262d565b60405180910390fd5b6001600160a01b03831661071a5760405162461bcd60e51b81526004016106eb906125aa565b6001600160a01b03831660009081526020819052604081206001015460ff16600481111561075857634e487b7160e01b600052602160045260246000fd5b146107755760405162461bcd60e51b81526004016106eb90612600565b60405180606001604052808381526020018260048111156107a657634e487b7160e01b600052602160045260246000fd5b815260016020918201526001600160a01b0385166000908152808252604090208251805191926107db92849290910190611e11565b50602082015160018083018054909160ff199091169083600481111561081157634e487b7160e01b600052602160045260246000fd5b0217905550604091820151600191820180549115156101000261ff0019909216919091179055805480820182556000919091527fb10e2d527612073b26eecdfd717e6a320cf44b4afac2b0732d9fcbe2b7fa0cf60180546001600160a01b0386166001600160a01b03199091168117909155905133907fc0c7207e3079b840d08487af67027c36354ff82b01a763d1c116e46a20a675df906108b6908690869061240b565b60405180910390a3505050565b6005546001600160a01b0316331480610932575060013360009081526020819052604090206001015460ff16600481111561090e57634e487b7160e01b600052602160045260246000fd5b148015610932575033600090815260208190526040902060010154610100900460ff165b61094e5760405162461bcd60e51b81526004016106eb9061262d565b600060028460405161096091906122b5565b908152604051908190036020019020805461097a9061287f565b9050116109995760405162461bcd60e51b81526004016106eb90612676565b816002846040516109aa91906122b5565b9081526020016040518091039020600a0181905550806002846040516109d091906122b5565b908152602001604051809103902060090181905550426002846040516109f691906122b5565b9081526020016040518091039020600801819055507f1b8d97f803e1d52a4ee51b206182afc20d3294643c79dcffd5d1416d2362fa30838383604051610a3e93929190612558565b60405180910390a1505050565b610a53611e95565b6000600283604051610a6591906122b5565b9081526040519081900360200190208054610a7f9061287f565b905011610a9e5760405162461bcd60e51b81526004016106eb90612676565b600282604051610aae91906122b5565b908152602001604051809103902060405180610160016040529081600082018054610ad89061287f565b80601f0160208091040260200160405190810160405280929190818152602001828054610b049061287f565b8015610b515780601f10610b2657610100808354040283529160200191610b51565b820191906000526020600020905b815481529060010190602001808311610b3457829003601f168201915b50505050508152602001600182018054610b6a9061287f565b80601f0160208091040260200160405190810160405280929190818152602001828054610b969061287f565b8015610be35780601f10610bb857610100808354040283529160200191610be3565b820191906000526020600020905b815481529060010190602001808311610bc657829003601f168201915b50505050508152602001600282018054610bfc9061287f565b80601f0160208091040260200160405190810160405280929190818152602001828054610c289061287f565b8015610c755780601f10610c4a57610100808354040283529160200191610c75565b820191906000526020600020905b815481529060010190602001808311610c5857829003601f168201915b50505050508152602001600382018054610c8e9061287f565b80601f0160208091040260200160405190810160405280929190818152602001828054610cba9061287f565b8015610d075780601f10610cdc57610100808354040283529160200191610d07565b820191906000526020600020905b815481529060010190602001808311610cea57829003601f168201915b50505050508152602001600482018054610d209061287f565b80601f0160208091040260200160405190810160405280929190818152602001828054610d4c9061287f565b8015610d995780601f10610d6e57610100808354040283529160200191610d99565b820191906000526020600020905b815481529060010190602001808311610d7c57829003601f168201915b50505050508152602001600582018054610db29061287f565b80601f0160208091040260200160405190810160405280929190818152602001828054610dde9061287f565b8015610e2b5780601f10610e0057610100808354040283529160200191610e2b565b820191906000526020600020905b815481529060010190602001808311610e0e57829003601f168201915b505050918352505060068201546001600160a01b03166020820152600782018054604090920191610e5b9061287f565b80601f0160208091040260200160405190810160405280929190818152602001828054610e879061287f565b8015610ed45780601f10610ea957610100808354040283529160200191610ed4565b820191906000526020600020905b815481529060010190602001808311610eb757829003601f168201915b505050505081526020016008820154815260200160098201548152602001600a8201548152505090505b919050565b60038181548110610f1357600080fd5b906000526020600020016000915090508054610f2e9061287f565b80601f0160208091040260200160405190810160405280929190818152602001828054610f5a9061287f565b8015610fa75780601f10610f7c57610100808354040283529160200191610fa7565b820191906000526020600020905b815481529060010190602001808311610f8a57829003601f168201915b505050505081565b60018181548110610fbf57600080fd5b6000918252602090912001546001600160a01b0316905081565b600060208190529081526040902080548190610ff49061287f565b80601f01602080910402602001604051908101604052809291908181526020018280546110209061287f565b801561106d5780601f106110425761010080835404028352916020019161106d565b820191906000526020600020905b81548152906001019060200180831161105057829003601f168201915b5050506001909301549192505060ff8082169161010090041683565b6004818154811061109957600080fd5b90600052602060002090600502016000915090508060000180546110bc9061287f565b80601f01602080910402602001604051908101604052809291908181526020018280546110e89061287f565b80156111355780601f1061110a57610100808354040283529160200191611135565b820191906000526020600020905b81548152906001019060200180831161111857829003601f168201915b5050505060018301546002840154600385015460049095015493946001600160a01b039092169390925085565b6005546001600160a01b03163314806111d1575060013360009081526020819052604090206001015460ff1660048111156111ad57634e487b7160e01b600052602160045260246000fd5b1480156111d1575033600090815260208190526040902060010154610100900460ff165b6111ed5760405162461bcd60e51b81526004016106eb9061262d565b60006002846040516111ff91906122b5565b9081526020016040518091039020905060008160000180546112209061287f565b90501161123f5760405162461bcd60e51b81526004016106eb90612676565b8281600a015410156112635760405162461bcd60e51b81526004016106eb906125d3565b60008160090154846112759190612819565b90508382600a01600082825461128b9190612838565b90915550506006820180546001600160a01b0319166001600160a01b0385161790556040805180820190915260048082526314dbdb1960e21b60209092019182526112da916007850191611e11565b5042600883018190556040805160a0810182528781526001600160a01b038616602080830191909152918101879052606081018490526080810192909252600480546001810182556000919091528251805160059092027f8a35acfbc15ff81a39ae7d344fd709f28e8600b4aa8c65c6b64bfe7fe36bd19b019261136392849290910190611e11565b5060208201516001820180546001600160a01b0319166001600160a01b03909216919091179055604080830151600283015560608301516003830155608090920151600490910155517fd6cd4d9e94a315f03b304abc94ec23ad8e1bd78360b5b92c282be44f872a4c8d906113df908790869088908690612393565b60405180910390a15050505050565b6005546001600160a01b031633148061145d575060013360009081526020819052604090206001015460ff16600481111561143957634e487b7160e01b600052602160045260246000fd5b14801561145d575033600090815260208190526040902060010154610100900460ff165b6114795760405162461bcd60e51b81526004016106eb9061262d565b6001600160a01b03821660009081526020819052604081206001015460ff1660048111156114b757634e487b7160e01b600052602160045260246000fd5b14156114d55760405162461bcd60e51b81526004016106eb9061269e565b6001600160a01b03909116600090815260208190526040902060010180549115156101000261ff0019909216919091179055565b60008060008060038054905067ffffffffffffffff81111561153b57634e487b7160e01b600052604160045260246000fd5b60405190808252806020026020018201604052801561156e57816020015b60608152602001906001900390816115595790505b5090506000806000805b600354811015611b045760006002600383815481106115a757634e487b7160e01b600052603260045260246000fd5b906000526020600020016040516115be91906122d1565b9081526020016040518091039020604051806101600160405290816000820180546115e89061287f565b80601f01602080910402602001604051908101604052809291908181526020018280546116149061287f565b80156116615780601f1061163657610100808354040283529160200191611661565b820191906000526020600020905b81548152906001019060200180831161164457829003601f168201915b5050505050815260200160018201805461167a9061287f565b80601f01602080910402602001604051908101604052809291908181526020018280546116a69061287f565b80156116f35780601f106116c8576101008083540402835291602001916116f3565b820191906000526020600020905b8154815290600101906020018083116116d657829003601f168201915b5050505050815260200160028201805461170c9061287f565b80601f01602080910402602001604051908101604052809291908181526020018280546117389061287f565b80156117855780601f1061175a57610100808354040283529160200191611785565b820191906000526020600020905b81548152906001019060200180831161176857829003601f168201915b5050505050815260200160038201805461179e9061287f565b80601f01602080910402602001604051908101604052809291908181526020018280546117ca9061287f565b80156118175780601f106117ec57610100808354040283529160200191611817565b820191906000526020600020905b8154815290600101906020018083116117fa57829003601f168201915b505050505081526020016004820180546118309061287f565b80601f016020809104026020016040519081016040528092919081815260200182805461185c9061287f565b80156118a95780601f1061187e576101008083540402835291602001916118a9565b820191906000526020600020905b81548152906001019060200180831161188c57829003601f168201915b505050505081526020016005820180546118c29061287f565b80601f01602080910402602001604051908101604052809291908181526020018280546118ee9061287f565b801561193b5780601f106119105761010080835404028352916020019161193b565b820191906000526020600020905b81548152906001019060200180831161191e57829003601f168201915b505050918352505060068201546001600160a01b0316602082015260078201805460409092019161196b9061287f565b80601f01602080910402602001604051908101604052809291908181526020018280546119979061287f565b80156119e45780601f106119b9576101008083540402835291602001916119e4565b820191906000526020600020905b8154815290600101906020018083116119c757829003601f168201915b505050505081526020016008820154815260200160098201548152602001600a82015481525050905080610140015184611a1e9190612801565b9350806101200151816101400151611a369190612819565b611a409084612801565b92506000805b86811015611aaa57826040015180519060200120888281518110611a7a57634e487b7160e01b600052603260045260246000fd5b6020026020010151805190602001201415611a985760019150611aaa565b80611aa2816128ba565b915050611a46565b5080611aef578160400151878781518110611ad557634e487b7160e01b600052603260045260246000fd5b60200260200101819052508580611aeb906128ba565b9650505b50508080611afc906128ba565b915050611578565b509195509350915050909192565b6005546001600160a01b0316331480611b81575060013360009081526020819052604090206001015460ff166004811115611b5d57634e487b7160e01b600052602160045260246000fd5b148015611b81575033600090815260208190526040902060010154610100900460ff165b611b9d5760405162461bcd60e51b81526004016106eb9061262d565b600288604051611bad91906122b5565b9081526040519081900360200190208054611bc79061287f565b159050611be65760405162461bcd60e51b81526004016106eb9061257d565b604051806101600160405280898152602001888152602001878152602001868152602001858152602001848152602001336001600160a01b031681526020016040518060400160405280600a815260200169149959da5cdd195c995960b21b815250815260200142815260200182815260200183815250600289604051611c6d91906122b5565b90815260200160405180910390206000820151816000019080519060200190611c97929190611e11565b506020828101518051611cb09260018501920190611e11565b5060408201518051611ccc916002840191602090910190611e11565b5060608201518051611ce8916003840191602090910190611e11565b5060808201518051611d04916004840191602090910190611e11565b5060a08201518051611d20916005840191602090910190611e11565b5060c08201516006820180546001600160a01b0319166001600160a01b0390921691909117905560e08201518051611d62916007840191602090910190611e11565b506101008201516008820155610120820151600982015561014090910151600a90910155600380546001810182556000919091528851611dc9917fc2575a0e9e593c00f959f8c92f12db2869c3395a3b0502d05e2516446f71f85b019060208b0190611e11565b507f2cf05d1826500ad801364cbc0f451ab8f05e6f6b1d8b2bccd3d9bbef65d2ce8588888484604051611dff949392919061251f565b60405180910390a15050505050505050565b828054611e1d9061287f565b90600052602060002090601f016020900481019282611e3f5760008555611e85565b82601f10611e5857805160ff1916838001178555611e85565b82800160010185558215611e85579182015b82811115611e85578251825591602001919060010190611e6a565b50611e91929150611ef8565b5090565b60405180610160016040528060608152602001606081526020016060815260200160608152602001606081526020016060815260200160006001600160a01b03168152602001606081526020016000815260200160008152602001600081525090565b5b80821115611e915760008155600101611ef9565b80356001600160a01b0381168114610efe57600080fd5b600082601f830112611f34578081fd5b813567ffffffffffffffff80821115611f4f57611f4f6128eb565b604051601f8301601f191681016020018281118282101715611f7357611f736128eb565b604052828152848301602001861015611f8a578384fd5b82602086016020830137918201602001929092529392505050565b600060208284031215611fb6578081fd5b611fbf82611f0d565b9392505050565b60008060408385031215611fd8578081fd5b611fe183611f0d565b915060208301358015158114611ff5578182fd5b809150509250929050565b600080600060608486031215612014578081fd5b61201d84611f0d565b9250602084013567ffffffffffffffff811115612038578182fd5b61204486828701611f24565b925050604084013560058110612058578182fd5b809150509250925092565b600060208284031215612074578081fd5b813567ffffffffffffffff81111561208a578182fd5b61209684828501611f24565b949350505050565b600080600080600080600080610100898b0312156120ba578384fd5b883567ffffffffffffffff808211156120d1578586fd5b6120dd8c838d01611f24565b995060208b01359150808211156120f2578586fd5b6120fe8c838d01611f24565b985060408b0135915080821115612113578586fd5b61211f8c838d01611f24565b975060608b0135915080821115612134578586fd5b6121408c838d01611f24565b965060808b0135915080821115612155578586fd5b6121618c838d01611f24565b955060a08b0135915080821115612176578485fd5b506121838b828c01611f24565b93505060c0890135915060e089013590509295985092959890939650565b6000806000606084860312156121b5578283fd5b833567ffffffffffffffff8111156121cb578384fd5b6121d786828701611f24565b935050602084013591506121ed60408501611f0d565b90509250925092565b60008060006060848603121561220a578283fd5b833567ffffffffffffffff811115612220578384fd5b61222c86828701611f24565b9660208601359650604090950135949350505050565b600060208284031215612253578081fd5b5035919050565b6001600160a01b03169052565b6005811061228557634e487b7160e01b600052602160045260246000fd5b9052565b600081518084526122a181602086016020860161284f565b601f01601f19169290920160200192915050565b600082516122c781846020870161284f565b9190910192915050565b81546000908190600281046001808316806122ed57607f831692505b602080841082141561230d57634e487b7160e01b87526022600452602487fd5b81801561232157600181146123325761235e565b60ff1986168952848901965061235e565b61233b8a6127f5565b885b868110156123565781548b82015290850190830161233d565b505084890196505b509498975050505050505050565b6001600160a01b0391909116815260200190565b600060208252611fbf6020830184612289565b6000608082526123a66080830187612289565b6001600160a01b03959095166020830152506040810192909252606090910152919050565b600060a082526123de60a0830188612289565b6001600160a01b039690961660208301525060408101939093526060830191909152608090910152919050565b60006040825261241e6040830185612289565b9050611fbf6020830184612267565b6000606082526124406060830186612289565b905061244f6020830185612267565b8215156040830152949350505050565b60006101608083526124738184018f612289565b90508281036020840152612487818e612289565b9050828103604084015261249b818d612289565b905082810360608401526124af818c612289565b905082810360808401526124c3818b612289565b905082810360a08401526124d7818a612289565b90506124e660c084018961225a565b82810360e08401526124f88188612289565b61010084019690965250506101208101929092526101409091015298975050505050505050565b6000608082526125326080830187612289565b82810360208401526125448187612289565b604084019590955250506060015292915050565b60006060825261256b6060830186612289565b60208301949094525060400152919050565b6020808252601390820152725365656420616c72656164792065786973747360681b604082015260600190565b6020808252600f908201526e496e76616c6964206164647265737360881b604082015260600190565b6020808252601390820152724e6f7420656e6f756768207175616e7469747960681b604082015260600190565b6020808252601390820152725573657220616c72656164792065786973747360681b604082015260600190565b60208082526029908201527f4f6e6c79206163746976652061646d696e2063616e20706572666f726d20746860408201526834b99030b1ba34b7b760b91b606082015260800190565b6020808252600e908201526d14d95959081b9bdd08199bdd5b9960921b604082015260600190565b602080825260139082015272155cd95c88191bd95cc81b9bdd08195e1a5cdd606a1b604082015260600190565b60006020825282516101608060208501526126ea610180850183612289565b91506020850151601f19808685030160408701526127088483612289565b935060408701519150808685030160608701526127258483612289565b935060608701519150808685030160808701526127428483612289565b935060808701519150808685030160a087015261275f8483612289565b935060a08701519150808685030160c087015261277c8483612289565b935060c0870151915061279260e087018361225a565b60e087015191506101008187860301818801526127af8584612289565b90880151610120888101919091528801516101408089019190915290970151929095019190915250929392505050565b9283526020830191909152604082015260600190565b60009081526020902090565b60008219821115612814576128146128d5565b500190565b6000816000190483118215151615612833576128336128d5565b500290565b60008282101561284a5761284a6128d5565b500390565b60005b8381101561286a578181015183820152602001612852565b83811115612879576000848401525b50505050565b60028104600182168061289357607f821691505b602082108114156128b457634e487b7160e01b600052602260045260246000fd5b50919050565b60006000198214156128ce576128ce6128d5565b5060010190565b634e487b7160e01b600052601160045260246000fd5b634e487b7160e01b600052604160045260246000fdfea2646970667358221220047174db9de6b45428a0b49089023a1140e7df1f6f50ff0e099ef410776bf75d64736f6c63430008000033",
  "immutableReferences": {},
  "source": "// SPDX-License-Identifier: MIT\r\npragma solidity 0.8.0;\r\n\r\ncontract AdminPortal {\r\n    enum Role { None, Admin, Producer, Distributor, Customer }\r\n\r\n    struct User {\r\n        string name;\r\n        Role role;\r\n        bool isActive;\r\n    }\r\n\r\n    struct Seed {\r\n        string seedID;\r\n        string cropName;\r\n        string variety;\r\n        string lotNumber;\r\n        string certificationType;\r\n        string tagNumber;\r\n        address currentOwner;\r\n        string status;\r\n        uint256 timestamp;\r\n        uint256 pricePerUnit;\r\n        uint256 quantity;\r\n    }\r\n\r\n    struct Sale {\r\n        string seedID;\r\n        address buyer;\r\n        uint256 quantity;\r\n        uint256 totalPrice;\r\n        uint256 timestamp;\r\n    }\r\n\r\n    mapping(address => User) public users;\r\n    address[] public userList;\r\n\r\n    mapping(string => Seed) public seeds; // seedID => Seed\r\n    string[] public allSeedIDs;\r\n\r\n    Sale[] public sales;\r\n\r\n    address public superAdmin;\r\n\r\n    // EVENTS\r\n    event UserAdded(address indexed addedBy, address indexed user, string name, Role role);\r\n    event SeedAdded(string seedID, string cropName, uint256 quantity, uint256 pricePerUnit);\r\n    event SeedUpdated(string seedID, uint256 quantity, uint256 pricePerUnit);\r\n    event SeedSold(string seedID, address buyer, uint256 quantity, uint256 totalPrice);\r\n\r\n    modifier onlySuperAdmin() {\r\n        require(msg.sender == superAdmin, \"Only Super Admin can perform this action\");\r\n        _;\r\n    }\r\n\r\n    modifier onlyAdmin() {\r\n        require(\r\n            msg.sender == superAdmin || (users[msg.sender].role == Role.Admin && users[msg.sender].isActive),\r\n            \"Only active admin can perform this action\"\r\n        );\r\n        _;\r\n    }\r\n\r\n    constructor() {\r\n        superAdmin = msg.sender;\r\n        users[msg.sender] = User(\"Super Admin\", Role.Admin, true);\r\n        userList.push(msg.sender);\r\n    }\r\n\r\n    // -----------------------------\r\n    // User Management\r\n    // -----------------------------\r\n    function addUser(address _user, string memory _name, Role _role) public onlyAdmin {\r\n        require(_user != address(0), \"Invalid address\");\r\n        require(users[_user].role == Role.None, \"User already exists\");\r\n        users[_user] = User(_name, _role, true);\r\n        userList.push(_user);\r\n        emit UserAdded(msg.sender, _user, _name, _role);\r\n    }\r\n\r\n    function lockUnlockUser(address _user, bool _isActive) public onlyAdmin {\r\n        require(users[_user].role != Role.None, \"User does not exist\");\r\n        users[_user].isActive = _isActive;\r\n    }\r\n\r\n    // -----------------------------\r\n    // Seed Inventory\r\n    // -----------------------------\r\n    function addSeed(\r\n        string memory _seedID,\r\n        string memory _cropName,\r\n        string memory _variety,\r\n        string memory _lotNumber,\r\n        string memory _certType,\r\n        string memory _tagNumber,\r\n        uint256 _quantity,\r\n        uint256 _pricePerUnit\r\n    ) public onlyAdmin {\r\n        require(bytes(seeds[_seedID].seedID).length == 0, \"Seed already exists\");\r\n\r\n        seeds[_seedID] = Seed({\r\n            seedID: _seedID,\r\n            cropName: _cropName,\r\n            variety: _variety,\r\n            lotNumber: _lotNumber,\r\n            certificationType: _certType,\r\n            tagNumber: _tagNumber,\r\n            currentOwner: msg.sender,\r\n            status: \"Registered\",\r\n            timestamp: block.timestamp,\r\n            quantity: _quantity,\r\n            pricePerUnit: _pricePerUnit\r\n        });\r\n\r\n        allSeedIDs.push(_seedID);\r\n        emit SeedAdded(_seedID, _cropName, _quantity, _pricePerUnit);\r\n    }\r\n\r\n    function updateSeed(\r\n        string memory _seedID,\r\n        uint256 _quantity,\r\n        uint256 _pricePerUnit\r\n    ) public onlyAdmin {\r\n        require(bytes(seeds[_seedID].seedID).length > 0, \"Seed not found\");\r\n        seeds[_seedID].quantity = _quantity;\r\n        seeds[_seedID].pricePerUnit = _pricePerUnit;\r\n        seeds[_seedID].timestamp = block.timestamp;\r\n        emit SeedUpdated(_seedID, _quantity, _pricePerUnit);\r\n    }\r\n\r\n    function sellSeed(string memory _seedID, uint256 _quantity, address _buyer) public onlyAdmin {\r\n        Seed storage s = seeds[_seedID];\r\n        require(bytes(s.seedID).length > 0, \"Seed not found\");\r\n        require(s.quantity >= _quantity, \"Not enough quantity\");\r\n\r\n        uint256 totalPrice = _quantity * s.pricePerUnit;\r\n        s.quantity -= _quantity;\r\n        s.currentOwner = _buyer;\r\n        s.status = \"Sold\";\r\n        s.timestamp = block.timestamp;\r\n\r\n        sales.push(Sale(_seedID, _buyer, _quantity, totalPrice, block.timestamp));\r\n        emit SeedSold(_seedID, _buyer, _quantity, totalPrice);\r\n    }\r\n\r\n    // -----------------------------\r\n    // Search & Dashboard\r\n    // -----------------------------\r\n    function searchSeed(string memory _seedID) public view returns (Seed memory) {\r\n        require(bytes(seeds[_seedID].seedID).length > 0, \"Seed not found\");\r\n        return seeds[_seedID];\r\n    }\r\n\r\n    function getDashboardMetrics() public view returns (\r\n        uint256 totalVarieties,\r\n        uint256 totalQuantity,\r\n        uint256 totalCost\r\n    ) {\r\n        // count unique varieties\r\n        string[] memory uniqueVarieties = new string[](allSeedIDs.length);\r\n        uint256 varietyCount = 0;\r\n        uint256 quantitySum = 0;\r\n        uint256 costSum = 0;\r\n\r\n        for (uint i = 0; i < allSeedIDs.length; i++) {\r\n            Seed memory s = seeds[allSeedIDs[i]];\r\n            quantitySum += s.quantity;\r\n            costSum += s.quantity * s.pricePerUnit;\r\n\r\n            // check if variety already counted\r\n            bool exists = false;\r\n            for (uint j = 0; j < varietyCount; j++) {\r\n                if (keccak256(bytes(uniqueVarieties[j])) == keccak256(bytes(s.variety))) {\r\n                    exists = true;\r\n                    break;\r\n                }\r\n            }\r\n            if (!exists) {\r\n                uniqueVarieties[varietyCount] = s.variety;\r\n                varietyCount++;\r\n            }\r\n        }\r\n        return (varietyCount, quantitySum, costSum);\r\n    }\r\n}\r\n",
  "sourcePath": "C:\\Users\\admin\\OneDrive - Vidyalankar Institute of Technology\\Desktop\\Saathi\\saathi\\src\\contracts\\AdminPortal.sol",
  "compiler": {
    "name": "solc",
    "version": "0.8.0+commit.c7dfd78e.Emscripten.clang"
  },
  "schemaVersion": "3.4.16",
  "updatedAt": "2025-10-18T15:21:18.451Z",
  "devdoc": {
    "kind": "dev",
    "methods": {},
    "version": 1
  },
  "userdoc": {
    "kind": "user",
    "methods": {},
    "version": 1
  }
}