{
  "contractName": "SeedTrace",
  "abi": [
    {
      "anonymous": false,
      "inputs": [
        {
          "indexed": false,
          "internalType": "string",
          "name": "challanID",
          "type": "string"
        },
        {
          "indexed": false,
          "internalType": "string",
          "name": "seedID",
          "type": "string"
        },
        {
          "indexed": false,
          "internalType": "address",
          "name": "from",
          "type": "address"
        },
        {
          "indexed": false,
          "internalType": "address",
          "name": "to",
          "type": "address"
        },
        {
          "indexed": false,
          "internalType": "uint256",
          "name": "quantity",
          "type": "uint256"
        }
      ],
      "name": "DeliveryChallanGenerated",
      "type": "event"
    },
    {
      "anonymous": false,
      "inputs": [
        {
          "indexed": false,
          "internalType": "string",
          "name": "seedID",
          "type": "string"
        },
        {
          "indexed": false,
          "internalType": "address",
          "name": "owner",
          "type": "address"
        }
      ],
      "name": "SeedRegistered",
      "type": "event"
    },
    {
      "anonymous": false,
      "inputs": [
        {
          "indexed": false,
          "internalType": "string",
          "name": "seedID",
          "type": "string"
        },
        {
          "indexed": false,
          "internalType": "address",
          "name": "from",
          "type": "address"
        },
        {
          "indexed": false,
          "internalType": "address",
          "name": "to",
          "type": "address"
        }
      ],
      "name": "SeedTransferred",
      "type": "event"
    },
    {
      "inputs": [
        {
          "internalType": "uint256",
          "name": "",
          "type": "uint256"
        }
      ],
      "name": "allChallanIDs",
      "outputs": [
        {
          "internalType": "string",
          "name": "",
          "type": "string"
        }
      ],
      "stateMutability": "view",
      "type": "function"
    },
    {
      "inputs": [
        {
          "internalType": "uint256",
          "name": "",
          "type": "uint256"
        }
      ],
      "name": "allSeedIDs",
      "outputs": [
        {
          "internalType": "string",
          "name": "",
          "type": "string"
        }
      ],
      "stateMutability": "view",
      "type": "function"
    },
    {
      "inputs": [
        {
          "internalType": "string",
          "name": "",
          "type": "string"
        }
      ],
      "name": "challans",
      "outputs": [
        {
          "internalType": "string",
          "name": "challanID",
          "type": "string"
        },
        {
          "internalType": "string",
          "name": "seedID",
          "type": "string"
        },
        {
          "internalType": "address",
          "name": "from",
          "type": "address"
        },
        {
          "internalType": "address",
          "name": "to",
          "type": "address"
        },
        {
          "internalType": "uint256",
          "name": "quantity",
          "type": "uint256"
        },
        {
          "internalType": "uint256",
          "name": "date",
          "type": "uint256"
        }
      ],
      "stateMutability": "view",
      "type": "function"
    },
    {
      "inputs": [
        {
          "internalType": "string",
          "name": "",
          "type": "string"
        }
      ],
      "name": "seeds",
      "outputs": [
        {
          "internalType": "string",
          "name": "seedID",
          "type": "string"
        },
        {
          "internalType": "string",
          "name": "cropName",
          "type": "string"
        },
        {
          "internalType": "string",
          "name": "variety",
          "type": "string"
        },
        {
          "internalType": "string",
          "name": "lotNumber",
          "type": "string"
        },
        {
          "internalType": "string",
          "name": "certificationType",
          "type": "string"
        },
        {
          "internalType": "string",
          "name": "tagNumber",
          "type": "string"
        },
        {
          "internalType": "address",
          "name": "currentOwner",
          "type": "address"
        },
        {
          "internalType": "string",
          "name": "status",
          "type": "string"
        },
        {
          "internalType": "uint256",
          "name": "timestamp",
          "type": "uint256"
        }
      ],
      "stateMutability": "view",
      "type": "function"
    },
    {
      "inputs": [
        {
          "internalType": "string",
          "name": "_seedID",
          "type": "string"
        },
        {
          "internalType": "string",
          "name": "_cropName",
          "type": "string"
        },
        {
          "internalType": "string",
          "name": "_variety",
          "type": "string"
        },
        {
          "internalType": "string",
          "name": "_lotNumber",
          "type": "string"
        },
        {
          "internalType": "string",
          "name": "_certType",
          "type": "string"
        },
        {
          "internalType": "string",
          "name": "_tagNumber",
          "type": "string"
        }
      ],
      "name": "registerSeed",
      "outputs": [],
      "stateMutability": "nonpayable",
      "type": "function"
    },
    {
      "inputs": [
        {
          "internalType": "string",
          "name": "_seedID",
          "type": "string"
        },
        {
          "internalType": "address",
          "name": "_newOwner",
          "type": "address"
        }
      ],
      "name": "transferSeed",
      "outputs": [],
      "stateMutability": "nonpayable",
      "type": "function"
    },
    {
      "inputs": [
        {
          "internalType": "string",
          "name": "_seedID",
          "type": "string"
        }
      ],
      "name": "purchaseSeed",
      "outputs": [],
      "stateMutability": "nonpayable",
      "type": "function"
    },
    {
      "inputs": [
        {
          "internalType": "string",
          "name": "_seedID",
          "type": "string"
        }
      ],
      "name": "receiveSeed",
      "outputs": [],
      "stateMutability": "nonpayable",
      "type": "function"
    },
    {
      "inputs": [
        {
          "internalType": "string",
          "name": "_challanID",
          "type": "string"
        },
        {
          "internalType": "string",
          "name": "_seedID",
          "type": "string"
        },
        {
          "internalType": "address",
          "name": "_to",
          "type": "address"
        },
        {
          "internalType": "uint256",
          "name": "_quantity",
          "type": "uint256"
        }
      ],
      "name": "generateDeliveryChallan",
      "outputs": [],
      "stateMutability": "nonpayable",
      "type": "function"
    },
    {
      "inputs": [
        {
          "internalType": "string",
          "name": "_seedID",
          "type": "string"
        }
      ],
      "name": "getSeedDetails",
      "outputs": [
        {
          "internalType": "string",
          "name": "seedID",
          "type": "string"
        },
        {
          "internalType": "string",
          "name": "cropName",
          "type": "string"
        },
        {
          "internalType": "string",
          "name": "variety",
          "type": "string"
        },
        {
          "internalType": "string",
          "name": "lotNumber",
          "type": "string"
        },
        {
          "internalType": "string",
          "name": "certificationType",
          "type": "string"
        },
        {
          "internalType": "string",
          "name": "tagNumber",
          "type": "string"
        },
        {
          "internalType": "address",
          "name": "currentOwner",
          "type": "address"
        },
        {
          "internalType": "string",
          "name": "status",
          "type": "string"
        },
        {
          "internalType": "uint256",
          "name": "timestamp",
          "type": "uint256"
        }
      ],
      "stateMutability": "view",
      "type": "function"
    },
    {
      "inputs": [],
      "name": "getAllSeeds",
      "outputs": [
        {
          "components": [
            {
              "internalType": "string",
              "name": "seedID",
              "type": "string"
            },
            {
              "internalType": "string",
              "name": "cropName",
              "type": "string"
            },
            {
              "internalType": "string",
              "name": "variety",
              "type": "string"
            },
            {
              "internalType": "string",
              "name": "lotNumber",
              "type": "string"
            },
            {
              "internalType": "string",
              "name": "certificationType",
              "type": "string"
            },
            {
              "internalType": "string",
              "name": "tagNumber",
              "type": "string"
            },
            {
              "internalType": "address",
              "name": "currentOwner",
              "type": "address"
            },
            {
              "internalType": "string",
              "name": "status",
              "type": "string"
            },
            {
              "internalType": "uint256",
              "name": "timestamp",
              "type": "uint256"
            }
          ],
          "internalType": "struct SeedTrace.Seed[]",
          "name": "",
          "type": "tuple[]"
        }
      ],
      "stateMutability": "view",
      "type": "function"
    },
    {
      "inputs": [
        {
          "internalType": "string",
          "name": "_challanID",
          "type": "string"
        }
      ],
      "name": "getDeliveryChallan",
      "outputs": [
        {
          "internalType": "string",
          "name": "challanID",
          "type": "string"
        },
        {
          "internalType": "string",
          "name": "seedID",
          "type": "string"
        },
        {
          "internalType": "address",
          "name": "from",
          "type": "address"
        },
        {
          "internalType": "address",
          "name": "to",
          "type": "address"
        },
        {
          "internalType": "uint256",
          "name": "quantity",
          "type": "uint256"
        },
        {
          "internalType": "uint256",
          "name": "date",
          "type": "uint256"
        }
      ],
      "stateMutability": "view",
      "type": "function"
    },
    {
      "inputs": [],
      "name": "getAllChallans",
      "outputs": [
        {
          "components": [
            {
              "internalType": "string",
              "name": "challanID",
              "type": "string"
            },
            {
              "internalType": "string",
              "name": "seedID",
              "type": "string"
            },
            {
              "internalType": "address",
              "name": "from",
              "type": "address"
            },
            {
              "internalType": "address",
              "name": "to",
              "type": "address"
            },
            {
              "internalType": "uint256",
              "name": "quantity",
              "type": "uint256"
            },
            {
              "internalType": "uint256",
              "name": "date",
              "type": "uint256"
            }
          ],
          "internalType": "struct SeedTrace.DeliveryChallan[]",
          "name": "",
          "type": "tuple[]"
        }
      ],
      "stateMutability": "view",
      "type": "function"
    },
    {
      "inputs": [
        {
          "internalType": "string",
          "name": "_seedID",
          "type": "string"
        }
      ],
      "name": "verifySeed",
      "outputs": [
        {
          "internalType": "bool",
          "name": "",
          "type": "bool"
        }
      ],
      "stateMutability": "view",
      "type": "function"
    }
  ],
  "bytecode": "0x608060405234801561001057600080fd5b506129be806100206000396000f3fe608060405234801561001057600080fd5b50600436106100ea5760003560e01c8063811c8f7d1161008c578063a9783eef11610066578063a9783eef146101fd578063d5e3e66814610210578063d75c410a14610223578063e3da66eb14610236576100ea565b8063811c8f7d146101c05780638d73d6ad146101d5578063a25b0561146101e8576100ea565b80632f74c927116100c85780632f74c9271461014857806334210ae014610168578063371284f814610188578063748ad3bd146101ad576100ea565b806308cf7be4146100ef5780630d6f7e9c146101045780632dc0a2cd14610135575b600080fd5b6101026100fd366004612256565b610249565b005b610117610112366004612156565b6104a5565b60405161012c99989796959493929190612743565b60405180910390f35b6101026101433660046121dd565b6108bd565b61015b610156366004612344565b610af4565b60405161012c919061262e565b61017b610176366004612156565b610ba0565b60405161012c9190612623565b61019b610196366004612156565b610c24565b60405161012c969594939291906126ef565b61015b6101bb366004612344565b610dee565b6101c8610dfe565b60405161012c919061244c565b6101176101e3366004612156565b611068565b6101f061155d565b60405161012c9190612506565b61010261020b366004612191565b611a86565b61019b61021e366004612156565b611c4c565b610102610231366004612156565b611daa565b610102610244366004612156565b611e73565b6000866040516102599190612395565b908152604051908190036020019020805461027390612916565b15905061029b5760405162461bcd60e51b815260040161029290612854565b60405180910390fd5b6000604051806101200160405280888152602001878152602001868152602001858152602001848152602001838152602001336001600160a01b031681526020016040518060400160405280600a815260200169149959da5cdd195c995960b21b81525081526020014281525090508060008860405161031b9190612395565b90815260200160405180910390206000820151816000019080519060200190610345929190611f83565b50602082810151805161035e9260018501920190611f83565b506040820151805161037a916002840191602090910190611f83565b5060608201518051610396916003840191602090910190611f83565b50608082015180516103b2916004840191602090910190611f83565b5060a082015180516103ce916005840191602090910190611f83565b5060c08201516006820180546001600160a01b0319166001600160a01b0390921691909117905560e08201518051610410916007840191602090910190611f83565b506101009190910151600890910155600280546001810182556000919091528751610462917f405787fa12a823e0f2b7631cc41b3ba8828b3321ca811111fa75cd3aa3bb5ace019060208a0190611f83565b507f598a2c6f4dcbc54944a81982e248d86cc9dcf09518729cac543e86f2b53f9b108733604051610494929190612648565b60405180910390a150505050505050565b80516020818301810180516000825292820191909301209152805481906104cb90612916565b80601f01602080910402602001604051908101604052809291908181526020018280546104f790612916565b80156105445780601f1061051957610100808354040283529160200191610544565b820191906000526020600020905b81548152906001019060200180831161052757829003601f168201915b50505050509080600101805461055990612916565b80601f016020809104026020016040519081016040528092919081815260200182805461058590612916565b80156105d25780601f106105a7576101008083540402835291602001916105d2565b820191906000526020600020905b8154815290600101906020018083116105b557829003601f168201915b5050505050908060020180546105e790612916565b80601f016020809104026020016040519081016040528092919081815260200182805461061390612916565b80156106605780601f1061063557610100808354040283529160200191610660565b820191906000526020600020905b81548152906001019060200180831161064357829003601f168201915b50505050509080600301805461067590612916565b80601f01602080910402602001604051908101604052809291908181526020018280546106a190612916565b80156106ee5780601f106106c3576101008083540402835291602001916106ee565b820191906000526020600020905b8154815290600101906020018083116106d157829003601f168201915b50505050509080600401805461070390612916565b80601f016020809104026020016040519081016040528092919081815260200182805461072f90612916565b801561077c5780601f106107515761010080835404028352916020019161077c565b820191906000526020600020905b81548152906001019060200180831161075f57829003601f168201915b50505050509080600501805461079190612916565b80601f01602080910402602001604051908101604052809291908181526020018280546107bd90612916565b801561080a5780601f106107df5761010080835404028352916020019161080a565b820191906000526020600020905b8154815290600101906020018083116107ed57829003601f168201915b505050600684015460078501805494956001600160a01b0390921694919350915061083490612916565b80601f016020809104026020016040519081016040528092919081815260200182805461086090612916565b80156108ad5780601f10610882576101008083540402835291602001916108ad565b820191906000526020600020905b81548152906001019060200180831161089057829003601f168201915b5050505050908060080154905089565b82600080826040516108cf9190612395565b90815260405190819003602001902080546108e990612916565b9050116109085760405162461bcd60e51b8152600401610292906128b2565b836000816040516109199190612395565b90815260405190819003602001902060060154336001600160a01b03909116146109555760405162461bcd60e51b815260040161029290612826565b6001866040516109659190612395565b908152604051908190036020019020805461097f90612916565b15905061099e5760405162461bcd60e51b8152600401610292906127f6565b6040805160c0810182528781526020810187905233818301526001600160a01b0386166060820152608081018590524260a0820152905181906001906109e5908a90612395565b90815260200160405180910390206000820151816000019080519060200190610a0f929190611f83565b506020828101518051610a289260018501920190611f83565b5060408201516002820180546001600160a01b03199081166001600160a01b0393841617909155606084015160038085018054909316919093161790556080830151600483015560a09092015160059091015580546001810182556000919091528751610abc917fc2575a0e9e593c00f959f8c92f12db2869c3395a3b0502d05e2516446f71f85b019060208a0190611f83565b507f1f9283deedfd094a4602fd31a26a12baf309cf3b2f95fce65aebb8032b21677087873388886040516104949594939291906126a5565b60038181548110610b0457600080fd5b906000526020600020016000915090508054610b1f90612916565b80601f0160208091040260200160405190810160405280929190818152602001828054610b4b90612916565b8015610b985780601f10610b6d57610100808354040283529160200191610b98565b820191906000526020600020905b815481529060010190602001808311610b7b57829003601f168201915b505050505081565b60008160008082604051610bb49190612395565b9081526040519081900360200190208054610bce90612916565b905011610bed5760405162461bcd60e51b8152600401610292906128b2565b60008084604051610bfe9190612395565b9081526040519081900360200190208054610c1890612916565b90501191505b50919050565b6060806000806000806000600188604051610c3f9190612395565b90815260200160405180910390206040518060c0016040529081600082018054610c6890612916565b80601f0160208091040260200160405190810160405280929190818152602001828054610c9490612916565b8015610ce15780601f10610cb657610100808354040283529160200191610ce1565b820191906000526020600020905b815481529060010190602001808311610cc457829003601f168201915b50505050508152602001600182018054610cfa90612916565b80601f0160208091040260200160405190810160405280929190818152602001828054610d2690612916565b8015610d735780601f10610d4857610100808354040283529160200191610d73565b820191906000526020600020905b815481529060010190602001808311610d5657829003601f168201915b505050918352505060028201546001600160a01b039081166020808401919091526003840154909116604080840191909152600484015460608085019190915260059094015460809384015284519185015190850151938501519285015160a090950151919d909c50929a5090985091965090945092505050565b60028181548110610b0457600080fd5b60035460609060009067ffffffffffffffff811115610e2d57634e487b7160e01b600052604160045260246000fd5b604051908082528060200260200182016040528015610e6657816020015b610e53612007565b815260200190600190039081610e4b5790505b50905060005b60035481101561106257600160038281548110610e9957634e487b7160e01b600052603260045260246000fd5b90600052602060002001604051610eb091906123b1565b90815260200160405180910390206040518060c0016040529081600082018054610ed990612916565b80601f0160208091040260200160405190810160405280929190818152602001828054610f0590612916565b8015610f525780601f10610f2757610100808354040283529160200191610f52565b820191906000526020600020905b815481529060010190602001808311610f3557829003601f168201915b50505050508152602001600182018054610f6b90612916565b80601f0160208091040260200160405190810160405280929190818152602001828054610f9790612916565b8015610fe45780601f10610fb957610100808354040283529160200191610fe4565b820191906000526020600020905b815481529060010190602001808311610fc757829003601f168201915b505050918352505060028201546001600160a01b039081166020830152600383015416604082015260048201546060820152600590910154608090910152825183908390811061104457634e487b7160e01b600052603260045260246000fd5b6020026020010181905250808061105a9061294b565b915050610e6c565b50905090565b60608060608060608060006060600089600080826040516110899190612395565b90815260405190819003602001902080546110a390612916565b9050116110c25760405162461bcd60e51b8152600401610292906128b2565b6000808c6040516110d39190612395565b9081526020016040518091039020604051806101200160405290816000820180546110fd90612916565b80601f016020809104026020016040519081016040528092919081815260200182805461112990612916565b80156111765780601f1061114b57610100808354040283529160200191611176565b820191906000526020600020905b81548152906001019060200180831161115957829003601f168201915b5050505050815260200160018201805461118f90612916565b80601f01602080910402602001604051908101604052809291908181526020018280546111bb90612916565b80156112085780601f106111dd57610100808354040283529160200191611208565b820191906000526020600020905b8154815290600101906020018083116111eb57829003601f168201915b5050505050815260200160028201805461122190612916565b80601f016020809104026020016040519081016040528092919081815260200182805461124d90612916565b801561129a5780601f1061126f5761010080835404028352916020019161129a565b820191906000526020600020905b81548152906001019060200180831161127d57829003601f168201915b505050505081526020016003820180546112b390612916565b80601f01602080910402602001604051908101604052809291908181526020018280546112df90612916565b801561132c5780601f106113015761010080835404028352916020019161132c565b820191906000526020600020905b81548152906001019060200180831161130f57829003601f168201915b5050505050815260200160048201805461134590612916565b80601f016020809104026020016040519081016040528092919081815260200182805461137190612916565b80156113be5780601f10611393576101008083540402835291602001916113be565b820191906000526020600020905b8154815290600101906020018083116113a157829003601f168201915b505050505081526020016005820180546113d790612916565b80601f016020809104026020016040519081016040528092919081815260200182805461140390612916565b80156114505780601f1061142557610100808354040283529160200191611450565b820191906000526020600020905b81548152906001019060200180831161143357829003601f168201915b505050918352505060068201546001600160a01b0316602082015260078201805460409092019161148090612916565b80601f01602080910402602001604051908101604052809291908181526020018280546114ac90612916565b80156114f95780601f106114ce576101008083540402835291602001916114f9565b820191906000526020600020905b8154815290600101906020018083116114dc57829003601f168201915b505050505081526020016008820154815250509050806000015181602001518260400151836060015184608001518560a001518660c001518760e001518861010001519a509a509a509a509a509a509a509a509a5050509193959799909294969850565b60025460609060009067ffffffffffffffff81111561158c57634e487b7160e01b600052604160045260246000fd5b6040519080825280602002602001820160405280156115c557816020015b6115b261204f565b8152602001906001900390816115aa5790505b50905060005b600254811015611062576000600282815481106115f857634e487b7160e01b600052603260045260246000fd5b9060005260206000200160405161160f91906123b1565b90815260200160405180910390206040518061012001604052908160008201805461163990612916565b80601f016020809104026020016040519081016040528092919081815260200182805461166590612916565b80156116b25780601f10611687576101008083540402835291602001916116b2565b820191906000526020600020905b81548152906001019060200180831161169557829003601f168201915b505050505081526020016001820180546116cb90612916565b80601f01602080910402602001604051908101604052809291908181526020018280546116f790612916565b80156117445780601f1061171957610100808354040283529160200191611744565b820191906000526020600020905b81548152906001019060200180831161172757829003601f168201915b5050505050815260200160028201805461175d90612916565b80601f016020809104026020016040519081016040528092919081815260200182805461178990612916565b80156117d65780601f106117ab576101008083540402835291602001916117d6565b820191906000526020600020905b8154815290600101906020018083116117b957829003601f168201915b505050505081526020016003820180546117ef90612916565b80601f016020809104026020016040519081016040528092919081815260200182805461181b90612916565b80156118685780601f1061183d57610100808354040283529160200191611868565b820191906000526020600020905b81548152906001019060200180831161184b57829003601f168201915b5050505050815260200160048201805461188190612916565b80601f01602080910402602001604051908101604052809291908181526020018280546118ad90612916565b80156118fa5780601f106118cf576101008083540402835291602001916118fa565b820191906000526020600020905b8154815290600101906020018083116118dd57829003601f168201915b5050505050815260200160058201805461191390612916565b80601f016020809104026020016040519081016040528092919081815260200182805461193f90612916565b801561198c5780601f106119615761010080835404028352916020019161198c565b820191906000526020600020905b81548152906001019060200180831161196f57829003601f168201915b505050918352505060068201546001600160a01b031660208201526007820180546040909201916119bc90612916565b80601f01602080910402602001604051908101604052809291908181526020018280546119e890612916565b8015611a355780601f10611a0a57610100808354040283529160200191611a35565b820191906000526020600020905b815481529060010190602001808311611a1857829003601f168201915b50505050508152602001600882015481525050828281518110611a6857634e487b7160e01b600052603260045260246000fd5b60200260200101819052508080611a7e9061294b565b9150506115cb565b8160008082604051611a989190612395565b9081526040519081900360200190208054611ab290612916565b905011611ad15760405162461bcd60e51b8152600401610292906128b2565b82600081604051611ae29190612395565b90815260405190819003602001902060060154336001600160a01b0390911614611b1e5760405162461bcd60e51b815260040161029290612826565b60008085604051611b2f9190612395565b908152604051908190036020018120600601546001600160a01b031691508490600090611b5d908890612395565b908152602001604051809103902060060160006101000a8154816001600160a01b0302191690836001600160a01b031602179055506040518060400160405280600481526020016314dbdb1960e21b815250600086604051611bbf9190612395565b90815260200160405180910390206007019080519060200190611be3929190611f83565b5042600086604051611bf59190612395565b9081526020016040518091039020600801819055507f4b06a5d8b6101316983ccd26a2a785fd350bb71e992ef68a4fa0f02598463dc4858286604051611c3d93929190612672565b60405180910390a15050505050565b8051602081830181018051600182529282019190930120915280548190611c7290612916565b80601f0160208091040260200160405190810160405280929190818152602001828054611c9e90612916565b8015611ceb5780601f10611cc057610100808354040283529160200191611ceb565b820191906000526020600020905b815481529060010190602001808311611cce57829003601f168201915b505050505090806001018054611d0090612916565b80601f0160208091040260200160405190810160405280929190818152602001828054611d2c90612916565b8015611d795780601f10611d4e57610100808354040283529160200191611d79565b820191906000526020600020905b815481529060010190602001808311611d5c57829003601f168201915b5050505060028301546003840154600485015460059095015493946001600160a01b03928316949290911692509086565b8060008082604051611dbc9190612395565b9081526040519081900360200190208054611dd690612916565b905011611df55760405162461bcd60e51b8152600401610292906128b2565b60405180604001604052806008815260200167149958d95a5d995960c21b815250600083604051611e269190612395565b90815260200160405180910390206007019080519060200190611e4a929190611f83565b5042600083604051611e5c9190612395565b908152604051908190036020019020600801555050565b8060008082604051611e859190612395565b9081526040519081900360200190208054611e9f90612916565b905011611ebe5760405162461bcd60e51b8152600401610292906128b2565b600082604051611ece9190612395565b90815260405190819003602001902060060154336001600160a01b039091161415611f0b5760405162461bcd60e51b81526004016102929061288b565b33600083604051611f1c9190612395565b908152602001604051809103902060060160006101000a8154816001600160a01b0302191690836001600160a01b0316021790555060405180604001604052806009815260200168141d5c98da185cd95960ba1b815250600083604051611e269190612395565b828054611f8f90612916565b90600052602060002090601f016020900481019282611fb15760008555611ff7565b82601f10611fca57805160ff1916838001178555611ff7565b82800160010185558215611ff7579182015b82811115611ff7578251825591602001919060010190611fdc565b506120039291506120a4565b5090565b6040518060c00160405280606081526020016060815260200160006001600160a01b0316815260200160006001600160a01b0316815260200160008152602001600081525090565b60405180610120016040528060608152602001606081526020016060815260200160608152602001606081526020016060815260200160006001600160a01b0316815260200160608152602001600081525090565b5b8082111561200357600081556001016120a5565b80356001600160a01b03811681146120d057600080fd5b919050565b600082601f8301126120e5578081fd5b813567ffffffffffffffff8082111561210057612100612972565b604051601f8301601f19168101602001828111828210171561212457612124612972565b60405282815284830160200186101561213b578384fd5b82602086016020830137918201602001929092529392505050565b600060208284031215612167578081fd5b813567ffffffffffffffff81111561217d578182fd5b612189848285016120d5565b949350505050565b600080604083850312156121a3578081fd5b823567ffffffffffffffff8111156121b9578182fd5b6121c5858286016120d5565b9250506121d4602084016120b9565b90509250929050565b600080600080608085870312156121f2578182fd5b843567ffffffffffffffff80821115612209578384fd5b612215888389016120d5565b9550602087013591508082111561222a578384fd5b50612237878288016120d5565b935050612246604086016120b9565b9396929550929360600135925050565b60008060008060008060c0878903121561226e578182fd5b863567ffffffffffffffff80821115612285578384fd5b6122918a838b016120d5565b975060208901359150808211156122a6578384fd5b6122b28a838b016120d5565b965060408901359150808211156122c7578384fd5b6122d38a838b016120d5565b955060608901359150808211156122e8578384fd5b6122f48a838b016120d5565b94506080890135915080821115612309578384fd5b6123158a838b016120d5565b935060a089013591508082111561232a578283fd5b5061233789828a016120d5565b9150509295509295509295565b600060208284031215612355578081fd5b5035919050565b6001600160a01b03169052565b600081518084526123818160208601602086016128e6565b601f01601f19169290920160200192915050565b600082516123a78184602087016128e6565b9190910192915050565b81546000908190600281046001808316806123cd57607f831692505b60208084108214156123ed57634e487b7160e01b87526022600452602487fd5b81801561240157600181146124125761243e565b60ff1986168952848901965061243e565b61241b8a6128da565b885b868110156124365781548b82015290850190830161241d565b505084890196505b509498975050505050505050565b60208082528251828201819052600091906040908185019080840286018301878501865b838110156124f857603f19898403018552815160c0815181865261249682870182612369565b915050888201518582038a8701526124ae8282612369565b898401516001600160a01b03908116888c0152606080860151909116908801526080808501519088015260a093840151939096019290925250509386019390860190600101612470565b509098975050505050505050565b60208082528251828201819052600091906040908185019080840286018301878501865b838110156124f857603f198984030185528151610120815181865261255182870182612369565b915050888201518582038a8701526125698282612369565b91505087820151858203898701526125818282612369565b9150506060808301518683038288015261259b8382612369565b92505050608080830151868303828801526125b68382612369565b9250505060a080830151868303828801526125d18382612369565b9250505060c0808301516125e78288018261235c565b505060e080830151868303828801526126008382612369565b61010094850151979094019690965250509487019492509086019060010161252a565b901515815260200190565b6000602082526126416020830184612369565b9392505050565b60006040825261265b6040830185612369565b905060018060a01b03831660208301529392505050565b6000606082526126856060830186612369565b6001600160a01b0394851660208401529290931660409091015292915050565b600060a082526126b860a0830188612369565b82810360208401526126ca8188612369565b6001600160a01b03968716604085015294909516606083015250608001529392505050565b600060c0825261270260c0830189612369565b82810360208401526127148189612369565b6001600160a01b03978816604085015295909616606083015250608081019290925260a0909101529392505050565b60006101208083526127578184018d612369565b9050828103602084015261276b818c612369565b9050828103604084015261277f818b612369565b90508281036060840152612793818a612369565b905082810360808401526127a78189612369565b905082810360a08401526127bb8188612369565b6001600160a01b03871660c085015283810360e085015290506127de8186612369565b915050826101008301529a9950505050505050505050565b6020808252601690820152754368616c6c616e20616c72656164792065786973747360501b604082015260600190565b6020808252601490820152732737ba1030baba3437b934bd32b21037bbb732b960611b604082015260600190565b60208082526017908201527f5365656420616c72656164792072656769737465726564000000000000000000604082015260600190565b6020808252600d908201526c105b1c9958591e481bdddb9959609a1b604082015260600190565b6020808252600e908201526d14d95959081b9bdd08199bdd5b9960921b604082015260600190565b60009081526020902090565b60005b838110156129015781810151838201526020016128e9565b83811115612910576000848401525b50505050565b60028104600182168061292a57607f821691505b60208210811415610c1e57634e487b7160e01b600052602260045260246000fd5b600060001982141561296b57634e487b7160e01b81526011600452602481fd5b5060010190565b634e487b7160e01b600052604160045260246000fdfea264697066735822122012a91470fbea40c4d0396436b0cbc3a0876cc6e3847b16c267705aaac428e62b64736f6c63430008000033",
  "immutableReferences": {},
  "source": "// SPDX-License-Identifier: MIT\r\npragma solidity 0.8.0;\r\n\r\n/**\r\n * @title Seed Traceability and Inventory Management\r\n * @dev SAATHI Project  ensures transparency in seed movement using blockchain\r\n */\r\n\r\ncontract SeedTrace {\r\n    // ----------------------------- STRUCTS -----------------------------\r\n    struct Seed {\r\n        string seedID;\r\n        string cropName;\r\n        string variety;\r\n        string lotNumber;\r\n        string certificationType;\r\n        string tagNumber;\r\n        address currentOwner;\r\n        string status; // Registered, Sold, Purchased, Received, Delivered\r\n        uint256 timestamp;\r\n    }\r\n\r\n    struct DeliveryChallan {\r\n        string challanID;\r\n        string seedID;\r\n        address from;\r\n        address to;\r\n        uint256 quantity;\r\n        uint256 date;\r\n    }\r\n\r\n    // ----------------------------- MAPPINGS -----------------------------\r\n    mapping(string => Seed) public seeds;\r\n    mapping(string => DeliveryChallan) public challans;\r\n    string[] public allSeedIDs;\r\n    string[] public allChallanIDs;\r\n\r\n    // ----------------------------- EVENTS -----------------------------\r\n    event SeedRegistered(string seedID, address owner);\r\n    event SeedTransferred(string seedID, address from, address to);\r\n    event DeliveryChallanGenerated(string challanID, string seedID, address from, address to, uint256 quantity);\r\n\r\n    // ----------------------------- MODIFIERS -----------------------------\r\n    modifier seedExists(string memory _seedID) {\r\n        require(bytes(seeds[_seedID].seedID).length > 0, \"Seed not found\");\r\n        _;\r\n    }\r\n\r\n    modifier onlyOwner(string memory _seedID) {\r\n        require(msg.sender == seeds[_seedID].currentOwner, \"Not authorized owner\");\r\n        _;\r\n    }\r\n\r\n    // ----------------------------- SEED REGISTRATION -----------------------------\r\n    function registerSeed(\r\n        string memory _seedID,\r\n        string memory _cropName,\r\n        string memory _variety,\r\n        string memory _lotNumber,\r\n        string memory _certType,\r\n        string memory _tagNumber\r\n    ) public {\r\n        require(bytes(seeds[_seedID].seedID).length == 0, \"Seed already registered\");\r\n\r\n        Seed memory newSeed = Seed({\r\n            seedID: _seedID,\r\n            cropName: _cropName,\r\n            variety: _variety,\r\n            lotNumber: _lotNumber,\r\n            certificationType: _certType,\r\n            tagNumber: _tagNumber,\r\n            currentOwner: msg.sender,\r\n            status: \"Registered\",\r\n            timestamp: block.timestamp\r\n        });\r\n\r\n        seeds[_seedID] = newSeed;\r\n        allSeedIDs.push(_seedID);\r\n        emit SeedRegistered(_seedID, msg.sender);\r\n    }\r\n\r\n    // ----------------------------- TRANSFER SEED -----------------------------\r\n    function transferSeed(\r\n        string memory _seedID,\r\n        address _newOwner\r\n    ) public seedExists(_seedID) onlyOwner(_seedID) {\r\n        address prevOwner = seeds[_seedID].currentOwner;\r\n        seeds[_seedID].currentOwner = _newOwner;\r\n        seeds[_seedID].status = \"Sold\";\r\n        seeds[_seedID].timestamp = block.timestamp;\r\n        emit SeedTransferred(_seedID, prevOwner, _newOwner);\r\n    }\r\n\r\n    // ----------------------------- PURCHASE SEED -----------------------------\r\n    function purchaseSeed(\r\n        string memory _seedID\r\n    ) public seedExists(_seedID) {\r\n        require(msg.sender != seeds[_seedID].currentOwner, \"Already owned\");\r\n        seeds[_seedID].currentOwner = msg.sender;\r\n        seeds[_seedID].status = \"Purchased\";\r\n        seeds[_seedID].timestamp = block.timestamp;\r\n    }\r\n\r\n    // ----------------------------- RECEIVE SEED -----------------------------\r\n    function receiveSeed(\r\n        string memory _seedID\r\n    ) public seedExists(_seedID) {\r\n        seeds[_seedID].status = \"Received\";\r\n        seeds[_seedID].timestamp = block.timestamp;\r\n    }\r\n\r\n    // ----------------------------- GENERATE DELIVERY CHALLAN -----------------------------\r\n    function generateDeliveryChallan(\r\n        string memory _challanID,\r\n        string memory _seedID,\r\n        address _to,\r\n        uint256 _quantity\r\n    ) public seedExists(_seedID) onlyOwner(_seedID) {\r\n        require(bytes(challans[_challanID].challanID).length == 0, \"Challan already exists\");\r\n\r\n        DeliveryChallan memory newChallan = DeliveryChallan({\r\n            challanID: _challanID,\r\n            seedID: _seedID,\r\n            from: msg.sender,\r\n            to: _to,\r\n            quantity: _quantity,\r\n            date: block.timestamp\r\n        });\r\n\r\n        challans[_challanID] = newChallan;\r\n        allChallanIDs.push(_challanID);\r\n\r\n        emit DeliveryChallanGenerated(_challanID, _seedID, msg.sender, _to, _quantity);\r\n    }\r\n\r\n    // ----------------------------- GET SEED DETAILS -----------------------------\r\n    function getSeedDetails(string memory _seedID)\r\n        public\r\n        view\r\n        seedExists(_seedID)\r\n        returns (\r\n            string memory seedID,\r\n            string memory cropName,\r\n            string memory variety,\r\n            string memory lotNumber,\r\n            string memory certificationType,\r\n            string memory tagNumber,\r\n            address currentOwner,\r\n            string memory status,\r\n            uint256 timestamp\r\n        )\r\n    {\r\n        Seed memory s = seeds[_seedID];\r\n        return (\r\n            s.seedID,\r\n            s.cropName,\r\n            s.variety,\r\n            s.lotNumber,\r\n            s.certificationType,\r\n            s.tagNumber,\r\n            s.currentOwner,\r\n            s.status,\r\n            s.timestamp\r\n        );\r\n    }\r\n\r\n    // ----------------------------- GET ALL SEEDS -----------------------------\r\n    function getAllSeeds() public view returns (Seed[] memory) {\r\n        Seed[] memory all = new Seed[](allSeedIDs.length);\r\n        for (uint i = 0; i < allSeedIDs.length; i++) {\r\n            all[i] = seeds[allSeedIDs[i]];\r\n        }\r\n        return all;\r\n    }\r\n\r\n    // ----------------------------- GET DELIVERY CHALLAN DETAILS -----------------------------\r\n    function getDeliveryChallan(string memory _challanID)\r\n        public\r\n        view\r\n        returns (\r\n            string memory challanID,\r\n            string memory seedID,\r\n            address from,\r\n            address to,\r\n            uint256 quantity,\r\n            uint256 date\r\n        )\r\n    {\r\n        DeliveryChallan memory c = challans[_challanID];\r\n        return (c.challanID, c.seedID, c.from, c.to, c.quantity, c.date);\r\n    }\r\n\r\n    // ----------------------------- GET ALL CHALLANS -----------------------------\r\n    function getAllChallans() public view returns (DeliveryChallan[] memory) {\r\n        DeliveryChallan[] memory all = new DeliveryChallan[](allChallanIDs.length);\r\n        for (uint i = 0; i < allChallanIDs.length; i++) {\r\n            all[i] = challans[allChallanIDs[i]];\r\n        }\r\n        return all;\r\n    }\r\n\r\n    // ----------------------------- VERIFY SEED -----------------------------\r\n    function verifySeed(string memory _seedID)\r\n        public\r\n        view\r\n        seedExists(_seedID)\r\n        returns (bool)\r\n    {\r\n        // If seed exists in blockchain, it's authentic\r\n        return bytes(seeds[_seedID].seedID).length > 0;\r\n    }\r\n}\r\n",
  "sourcePath": "X:\\projects\\Saathi-Seed-Portal\\src\\contracts\\SeedTrace.sol",
  "compiler": {
    "name": "solc",
    "version": "0.8.0+commit.c7dfd78e.Emscripten.clang"
  },
  "schemaVersion": "3.4.16",
  "updatedAt": "2025-10-22T10:55:47.056Z",
  "devdoc": {
    "details": "SAATHI Project  ensures transparency in seed movement using blockchain",
    "kind": "dev",
    "methods": {},
    "title": "Seed Traceability and Inventory Management",
    "version": 1
  },
  "userdoc": {
    "kind": "user",
    "methods": {},
    "version": 1
  }
}